:020000040800F2
:10000000C008002029990008290400082B040008D2
:100010002F04000833040008370400080000000023
:100020000000000000000000000000003B04000889
:100030003D040008000000003F04000841040008DF
:1000400043990008439900084399000899960008CD
:100050004399000843990008439900084399000810
:100060004399000843990008439900084399000800
:1000700043990008439900084399000843990008F0
:1000800043990008439900084399000843990008E0
:1000900043990008439900084399000843990008D0
:1000A00043990008439900084399000843990008C0
:1000B000439900084399000851D00008439900086B
:1000C00043990008439900084399000843990008A0
:1000D000439900089F980008439900084399000835
:1000E0004399000875960008439900084399000851
:1000F0004399000843990008439900084399000870
:10010000439900084399000843990008439900085F
:10011000439900084399000843990008439900084F
:10012000439900084399000843990008439900083F
:10013000439900084399000843990008439900082F
:10014000439900084399000843990008439900081F
:10015000439900084399000843990008439900080F
:1001600043990008439900084399000843990008FF
:1001700043990008439900084399000843990008EF
:10018000439900084399000800F002F800F06DF868
:100190000AA090E8000C82448344AAF10107DA45E2
:1001A00001D100F062F8AFF2090EBAE80F0013F0C7
:1001B000010F18BFFB1A43F00103184770FA000043
:1001C00090FA00000A444FF0000C10F8013B13F0C5
:1001D000070408BF10F8014B1D1108BF10F8015BA0
:1001E000641E05D010F8016B641E01F8016BF9D193
:1001F00013F0080F1EBF10F8014BAD1C0C1B09D1EA
:100200006D1E58BF01F801CBFAD505E014F8016B5B
:1002100001F8016B6D1EF9D59142D6D370470000ED
:100220000023002400250026103A28BF78C1FBD8FF
:10023000520728BF30C148BF0B60704764290DF0DA
:10024000ED8475290DF0EA8478290DF02385632962
:100250000DF0958673290DF09A86002070471FB522
:100260000EF028F81FBD10B510BD0DF0ABFE114605
:10027000FFF7F5FF00F008F80DF0C9FE03B4FFF733
:10028000F2FF03BC09F0ACFA8EB000264FF4A06078
:1002900009F06AFBA82009F021FA4FF4E13009F0D7
:1002A000ACFA00F0D7F909F01BF900F07DFF01F07E
:1002B00042FC02F0B7F802F02DFD0021042009F005
:1002C000A3F90DA900200BF0A1FE9DF835409DF883
:1002D00034500A2094FBF0F100FB1140C7B20A2011
:1002E00094FBF0F000F0FF080A2095FBF0F100FB12
:1002F000115000F0FF090A2095FBF0F000F0FF0A12
:1003000043464A4651463BA000970DF017FC3B463A
:1003100042464946504603F075F96AE0701CC6B281
:100320000A2096FBF0F100FB1160002850D10DA9C6
:100330000BF06CFE9DF83500A04220D09DF83540B2
:100340009DF834500A2094FBF0F100FB1140C7B235
:100350000A2094FBF0F000F0FF080A2095FBF0F172
:1003600000FB115000F0FF090A2095FBF0F000F0AF
:10037000FF0A3B4642464946504604F07AF90CA92A
:1003800000200BF0DDFE9DF8320000909DF831302A
:100390009DF833201BA102A80DF0DCFB02A8102160
:1003A0000B46D222CDE90010A0211E2009F041F811
:1003B0009DF8302019A102A80DF0CCFB02A8102155
:1003C0000B46D222CDE90010B4211E2009F031F8ED
:1003D000142096FBF0F100FB116038B91148006859
:1003E00008B9012000E000200E4908600A2009F049
:1003F000D7F993E725642025642025642025640D22
:100400000A000000446174653A3230253032642DB0
:10041000253032642D253032640000005765656B4D
:100420003A256400A4824242704700BFFEE700BF45
:10043000FEE700BFFEE700BFFEE77047704770476A
:10044000704700000CB500200190009076480068CD
:1004500040F480307449086000BF7348006800F4BD
:10046000003000900198401C0190009818B9019844
:10047000B0F5A04FF1D16C48006800F4003010B125
:100480000120009001E0002000900098012846D152
:1004900065484030006840F0805063494031086052
:1004A0006248006840F44040604908605E48083097
:1004B00000685D49083108600846006840F4004063
:1004C00008600846006840F4A05008605848091FBA
:1004D0000860081F006840F08070091F086000BFB6
:1004E0005148006800F000700028F9D040F2057013
:1004F000504908604C480830006820F003004A4921
:10050000083108600846006840F00200086000BF3B
:1005100045480830006800F00C000828F8D10CBDF0
:1005200010B54548006840F47000434908603E48F3
:10053000006840F001003C49086000203A49083159
:100540000860394800683D490840374908603C4820
:10055000091D0860081F006820F48020091F08603A
:10056000002031490C310860FFF76CFF4FF000604C
:1005700031498039086010BD70B500200022022387
:1005800000240221284D08352D6805F00C0020B10B
:10059000042806D0082834D107E02A4D2A4E3560B9
:1005A00033E02A4D284E35602FE01F4D2D1D2D685C
:1005B000C5F380541C4D2D1D2D6805F03F0154B12D
:1005C000224DB5FBF1F5184E361D3668C6F3881678
:1005D00005FB06F209E01B4DB5FBF1F5124E361D89
:1005E0003668C6F3881605FB06F20F4D2D1D2D68E3
:1005F000C5F301456D1C6B00B2FBF3F5124E35607F
:1006000003E0104D104E356000BF00BF064D0835A9
:100610002D68C5F303150E4E705D0B4D2D68C5405A
:10062000094E356070BD0000003802400070004087
:1006300008544007003C024088ED00E0FFFFF6FE52
:10064000103000240024F4000000002000127A0082
:10065000040000201CB5012120200AF095FD4FF474
:10066000C060009001208DF8040000208DF8060085
:1006700003208DF8050001208DF807006946044825
:1006800009F068FA4FF4C061014809F0DFFA1CBDB7
:100690000014024010B586B0044600214FF080409F
:1006A00009F07CFE00214FF080400AF010F8002194
:1006B0004FF0804009F054FE012C03D16020ADF8CA
:1006C000040002E07020ADF804000120ADF806003F
:1006D0000020ADF8100001A94FF0804009F06AFE3B
:1006E0000821C80609F0F3FF0121880709F038FE48
:1006F0000121880709F052FE06B010BD10B586B082
:10070000044600214FF0804009F048FE00214FF0E0
:10071000804009F0E5FF00214FF0804009F020FE05
:10072000012C03D16020ADF8040002E07020ADF888
:1007300004000120ADF806000020ADF8100001A96A
:100740004FF0804009F06FFE0821C80609F0C8FF8D
:100750000121880709F004FE0121880709F01EFE27
:1007600006B010BD10B586B0044600214FF08040A1
:1007700009F014FE00214FF0804009F0BEFF002177
:100780004FF0804009F0ECFD012C03D16020ADF862
:10079000040002E07020ADF804000120ADF806006E
:1007A0000020ADF8100001A94FF0804009F088FE4C
:1007B0000821C80609F0A1FF0121880709F0D0FD32
:1007C0000121880709F0EAFD06B010BD10B586B01A
:1007D000044600214FF0804009F0E0FD00214FF079
:1007E000804009F093FF00214FF0804009F0B8FDF0
:1007F000012C03D16020ADF8040002E07020ADF8B8
:1008000004000120ADF806000020ADF8100001A999
:100810004FF0804009F0BAFE0821C80609F076FFC3
:100820000121880709F09CFD0121880709F0B6FD28
:1008300006B010BD2DE9F04107460C4615461E4690
:100840003846FFF727FF2046FFF758FF2846FFF7F7
:1008500089FF3046FFF7BAFFBDE8F0812DE9F0438C
:1008600085B004460D4690469946DDE90C670121A6
:1008700008460AF0D2FC012108460AF085FC012155
:1008800002200AF081FC01220521FE4809F0EDF961
:1008900001220321FC4809F0E8F901220A21FA4863
:1008A00009F0E3F901220B21F74809F0DEF92020D5
:1008B000039002208DF8100003208DF81100002015
:1008C0008DF8120002208DF8130003A9ED4809F0FD
:1008D00041F90820039002208DF8100003208DF8C4
:1008E000110000208DF8120002208DF8130003A9DA
:1008F000E54809F02FF94FF48060039002208DF84D
:10090000100003208DF8110000208DF81200022045
:100910008DF8130003A9DC4809F01CF94FF40060BE
:10092000039002208DF8100003208DF811000020A4
:100930008DF8120002208DF8130003A9D24809F0A7
:1009400009F9A8B2ADF800000020ADF8020001944A
:10095000ADF8080069464FF0804009F096FC01238D
:100960001A4619461846FFF765FF05B0BDE8F08343
:1009700010B586B004460021C44809F00FFD0021DF
:10098000C24809F0A4FE0021C04809F0E9FC012C8E
:1009900003D16020ADF8040002E07020ADF804003F
:1009A0000120ADF806000020ADF8100001A9B748FD
:1009B00009F000FD0821B54809F089FE0121B3487E
:1009C00009F0CEFC0121B14809F0E8FC06B010BDE9
:1009D00010B586B004460021AC4809F0DFFC0021C8
:1009E000AA4809F07DFE0021A84809F0B9FC012CB5
:1009F00003D16020ADF8040002E07020ADF80400DF
:100A00000120ADF806000020ADF8100001A99F48B4
:100A100009F009FD08219D4809F062FE01219B486B
:100A200009F09EFC0121994809F0B8FC06B010BD00
:100A300010B586B004460021944809F0AFFC0021AF
:100A4000924809F05AFE0021904809F089FC012CD7
:100A500003D16020ADF8040002E07020ADF804007E
:100A60000120ADF806000020ADF8100001A987486C
:100A700009F026FD0821854809F03FFE0121834841
:100A800009F06EFC0121814809F088FC06B010BD18
:100A900010B586B0044600217C4809F07FFC002197
:100AA0007A4809F033FE0021784809F059FC012CFE
:100AB00003D16020ADF8040002E07020ADF804001E
:100AC0000120ADF806000020ADF8100001A96F4824
:100AD00009F05CFD08216D4809F018FE01216B4802
:100AE00009F03EFC0121694809F058FC06B010BD30
:100AF0002DE9F04107460C4615461E463846FFF7DD
:100B000037FF2046FFF764FF2846FFF791FF304686
:100B1000FFF7BEFFBDE8F0812DE9F04385B0044644
:100B20000D4690469946DDE90C67012102200AF046
:100B300074FB012108460AF027FB012102200AF07C
:100B400023FB022206214F4809F08FF802220721D9
:100B50004C4809F08AF8022200214B4809F085F838
:100B600002220121484809F080F840200390022029
:100B70008DF8100003208DF8110000208DF8120070
:100B800002208DF8130003A93E4808F0E3FF8020FF
:100B9000039002208DF8100003208DF81100002032
:100BA0008DF8120002208DF8130003A9354808F0D3
:100BB000D1FF0120039002208DF8100003208DF852
:100BC000110000208DF8120002208DF8130003A9F7
:100BD0002D4808F0BFFF022003908DF8100003207D
:100BE0008DF8110000208DF8120002208DF81300FE
:100BF00003A9254808F0AEFFA8B2ADF80000002018
:100C0000ADF802000194ADF8080069461F4809F0EC
:100C10003CFB01231A4619461846FFF769FF05B049
:100C2000BDE8F08310B586B004460021184809F0ED
:100C3000B5FB0021164809F04AFD0021144809F0CF
:100C40008FFB012C03D16020ADF8040002E070207E
:100C5000ADF804000120ADF806000020ADF810004A
:100C600001A90B4809F0A6FB0821094809F02FFD4E
:100C70000121074809F074FB0121054809F08EFBAA
:100C800006B010BD00000240000402400004004015
:100C90000008004010B586B004460021FC4809F069
:100CA0007DFB0021FA4809F01BFD0021F84809F0FE
:100CB00057FB012C03D16020ADF8040002E0702046
:100CC000ADF804000120ADF806000020ADF81000DA
:100CD00001A9EF4809F0A7FB0821ED4809F000FD44
:100CE0000121EB4809F03CFB0121E94809F056FBE2
:100CF00006B010BD10B586B004460021E44809F0E6
:100D00004DFB0021E24809F0F8FC0021E04809F021
:100D100027FB012C03D16020ADF8040002E0702015
:100D2000ADF804000120ADF806000020ADF8100079
:100D300001A9D74809F0C4FB0821D54809F0DDFC1A
:100D40000121D34809F00CFB0121D14809F026FB11
:100D500006B010BD10B586B004460021CC4809F09D
:100D60001DFB0021CA4809F0D1FC0021C84809F048
:100D7000F7FA012C03D16020ADF8040002E07020E6
:100D8000ADF804000120ADF806000020ADF8100019
:100D900001A9BF4809F0FAFB0821BD4809F0B6FCDB
:100DA0000121BB4809F0DCFA0121B94809F0F6FA43
:100DB00006B010BD2DE9F04107460C4615461E460B
:100DC0003846FFF72FFF2046FFF764FF2846FFF75E
:100DD00091FF3046FFF7BEFFBDE8F0812DE9F043FB
:100DE00085B004460D4690469946DDE90C67012121
:100DF00004200AF012FA012102200AF0C5F90222A9
:100E00000621A44808F031FF02220721A14808F07A
:100E10002CFF022208219F4808F027FF0222092107
:100E20009C4808F022FF4020039002208DF810001B
:100E300003208DF8110000208DF8120002208DF89B
:100E4000130003A9934808F085FE80200390022038
:100E50008DF8100003208DF8110000208DF812008D
:100E600002208DF8130003A98A4808F073FE4FF49E
:100E70008070039002208DF8100003208DF811007F
:100E800000208DF8120002208DF8130003A981487C
:100E900008F060FE4FF40070039002208DF81000FF
:100EA00003208DF8110000208DF8120002208DF82B
:100EB000130003A9774808F04DFEA8B2ADF8000072
:100EC0000020ADF802000194ADF8080069467048B2
:100ED00009F0DBF901231A4619461846FFF76AFFA5
:100EE00005B0BDE8F08310B586B0044600216A481D
:100EF00009F054FA0021684809F0E9FB002166482E
:100F000009F02EFA012C03D16020ADF8040002E0B4
:100F10007020ADF804000120ADF806000020ADF807
:100F2000100001A95C4809F045FA08215A4809F067
:100F3000CEFB0121584809F013FA0121564809F067
:100F40002DFA06B010BD10B586B0044600215248F7
:100F500009F024FA0021504809F0C2FB00214E4854
:100F600009F0FEF9012C03D16020ADF8040002E085
:100F70007020ADF804000120ADF806000020ADF8A7
:100F8000100001A9444809F04EFA0821424809F02E
:100F9000A7FB0121404809F0E3F901213E4809F08F
:100FA000FDF906B010BD10B586B0044600213A48E0
:100FB00009F0F4F90021384809F09FFB0021364878
:100FC00009F0CEF9012C03D16020ADF8040002E055
:100FD0007020ADF804000120ADF806000020ADF847
:100FE000100001A92C4809F06BFA08212A4809F0E1
:100FF00084FB0121284809F0B3F90121264809F0B2
:10100000CDF906B010BD10B586B0044600212248C7
:1010100009F0C4F90021204809F078FB00211E489E
:1010200009F09EF9012C03D16020ADF8040002E024
:101030007020ADF804000120ADF806000020ADF8E6
:10104000100001A9144809F0A1FA0821124809F07A
:101050005DFB0121104809F083F901210E4809F0D8
:101060009DF906B010BD2DE9F04107460C46154626
:101070001E463846FFF737FF2046FFF764FF284635
:10108000FFF791FF3046FFF7BEFFBDE8F08100009B
:101090000008004000040240000C00402DE9F0432D
:1010A00085B004460D4690469946DDE90C6701215E
:1010B00008200AF0B2F8012108460AF065F8022279
:1010C0000021374808F0D1FD02220121344808F000
:1010D000CCFD02221146324808F0C7FD022203214E
:1010E0002F4808F0C2FD0120039002208DF8100067
:1010F00003208DF8110000208DF8120002208DF8D9
:10110000130003A9264808F025FD022003908DF85E
:10111000100003208DF8110000208DF8120002202D
:101120008DF8130003A91E4808F014FD0420039055
:1011300002208DF8100003208DF8110000208DF89A
:10114000120002208DF8130003A9154808F002FDD3
:101150000820039002208DF8100003208DF8110064
:1011600000208DF8120002208DF8130003A90C480E
:1011700008F0F0FCA8B2ADF800000020ADF80200C5
:101180000194ADF808006946064809F07EF801238D
:101190001A4619461846FFF766FF05B0BDE8F0830A
:1011A00000000240000C00401CB5012000900346E6
:1011B00002465321019040F2F310FFF74FFB4FF42A
:1011C000FA71080709F04FFA4FF4FA71080709F0AD
:1011D0004CFA4FF4FA71080709F049FA4FF4FA7122
:1011E000080709F046FA1CBD70B50546ADB90123E4
:1011F0001A4619461846FFF71DFB002409E0012096
:1012000008F0CEFA21464FF0804009F02CFA601C1D
:1012100084B2B4F5FA7FF2DD11E00220FFF73AFA6A
:10122000002409E0012008F0BBFA21464FF080407D
:1012300009F019FA601C84B2B4F5FA7FF2DD70BDD2
:1012400070B50546D5B90220FFF724FA0120FFF753
:1012500055FA00240EE0012008F0A2FA21464FF0D2
:10126000804009F000FA21464FF0804009F0FDF976
:10127000601C84B2B4F5FA7FEDDD19E00120FFF7C0
:1012800009FA0220FFF73AFA00240EE0012008F0E4
:1012900087FA21464FF0804009F0E5F921464FF0EA
:1012A000804009F0E2F9601C84B2B4F5FA7FEDDD0C
:1012B00070BD70B5054695B90120FFF7EBF9002424
:1012C00009E0012008F06CFA21464FF0804009F057
:1012D000CAF9601C84B2B4F5FA7FF2DD11E0022095
:1012E000FFF7D8F9002409E0012008F059FA214657
:1012F0004FF0804009F0B7F9601C84B2B4F5FA7F72
:10130000F2DD70BD70B5054615BB0220FFF7C2F9CE
:101310000220FFF7F3F90120FFF724FA002413E07D
:10132000012008F03DFA21464FF0804009F09BF97A
:1013300021464FF0804009F098F921464FF0804057
:1013400009F095F9601C84B2B4F5FA7FE8DD21E07C
:101350000120FFF79FF90120FFF7D0F90220FFF7E6
:1013600001FA002413E0012008F01AFA21464FF098
:10137000804009F078F921464FF0804009F075F976
:1013800021464FF0804009F072F9601C84B2B4F538
:10139000FA7FE8DD70BD70B5054695B90120FFF70D
:1013A00079F9002409E0012008F0FAF921464FF00C
:1013B000804009F058F9601C84B2B4F5FA7FF2DD80
:1013C00011E00220FFF766F9002409E0012008F08F
:1013D000E7F921464FF0804009F045F9601C84B2DE
:1013E000B4F5FA7FF2DD70BD70B50546D5B90220BF
:1013F000FFF750F90120FFF781F900240EE00120EA
:1014000008F0CEF921464FF0804009F02CF9214632
:101410004FF0804009F029F9601C84B2B4F5FA7FDE
:10142000EDDD19E00120FFF735F90220FFF766F93D
:1014300000240EE0012008F0B3F921464FF080406F
:1014400009F011F921464FF0804009F00EF9601CB7
:1014500084B2B4F5FA7FEDDD70BD70B5054695B97F
:101460000120FFF717F9002409E0012008F098F99E
:1014700021464FF0804009F0F6F8601C84B2B4F5C4
:10148000FA7FF2DD11E00220FFF704F9002409E001
:10149000012008F085F921464FF0804009F0E3F87B
:1014A000601C84B2B4F5FA7FF2DD70BD70B50546FC
:1014B00055BB0220FFF7EEF80220FFF71FF90220CC
:1014C000FFF750F90120FFF781F9002418E001200F
:1014D00008F066F921464FF0804009F0C4F8214633
:1014E0004FF0804009F0C1F821464FF0804009F0EC
:1014F000BEF821464FF0804009F0BBF8601C84B272
:10150000B4F5FA7FE3DD29E00120FFF7C3F80120FD
:10151000FFF7F4F80120FFF725F90220FFF756F94D
:10152000002418E0012008F03BF921464FF08040EC
:1015300009F099F821464FF0804009F096F82146CD
:101540004FF0804009F093F821464FF0804009F0B9
:1015500090F8601C84B2B4F5FA7FE3DD70BD70B51D
:10156000054695B90120FFF795F8002409E0012010
:1015700008F016F921464FF0804009F074F8601C1D
:1015800084B2B4F5FA7FF2DD11E00220FFF782F8B1
:10159000002409E0012008F003F921464FF08040C3
:1015A00009F061F8601C84B2B4F5FA7FF2DD70BD19
:1015B00070B50546D5B90220FFF76CF80220FFF799
:1015C00005F900240EE0012008F0EAF821464FF06A
:1015D000804009F048F821464FF0804009F049F872
:1015E000601C84B2B4F5FA7FEDDD19E00120FFF74D
:1015F00051F80120FFF7EAF800240EE0012008F07E
:10160000CFF821464FF0804009F02DF821464FF0E9
:10161000804009F02EF8601C84B2B4F5FA7FEDDD4D
:1016200070BD70B5054655BB0220FFF733F80220A8
:10163000FFF764F80220FFF795F80220FFF7C6F8DD
:10164000002418E0012008F0ABF821464FF080405C
:1016500009F009F821464FF0804009F006F82146CC
:101660004FF0804009F003F821464FF0804009F028
:1016700000F8601C84B2B4F5FA7FE3DD29E00120B4
:10168000FFF708F80120FFF739F80120FFF76AF8A3
:101690000120FFF79BF8002418E0012008F080F8F3
:1016A00021464FF0804008F0DEFF21464FF0804099
:1016B00008F0DBFF21464FF0804008F0D8FF2146BC
:1016C0004FF0804008F0D5FF601C84B2B4F5FA7F7B
:1016D000E3DD70BD70B5054615BB0220FFF70EF8BF
:1016E0000220FFF73FF80220FFF770F8002413E014
:1016F000012008F055F821464FF0804008F0B5FF72
:1017000021464FF0804008F0B2FF21464FF0804064
:1017100008F0AFFF601C84B2B4F5FA7FE8DD21E089
:101720000120FEF7EBFF0120FFF71CF80120FFF777
:101730004DF8002413E0012008F032F821464FF064
:10174000804008F092FF21464FF0804008F08FFF64
:1017500021464FF0804008F08CFF601C84B2B4F545
:10176000FA7FE8DD70BD70B5054615BB0220FEF7B7
:1017700091FF0220FEF7F6FF0220FFF727F8002472
:1017800013E0012008F00CF821464FF0804008F0EB
:101790006AFF21464FF0804008F069FF21464FF074
:1017A000804008F066FF601C84B2B4F5FA7FE8DD83
:1017B00021E00120FEF76EFF0120FEF7D3FF01209C
:1017C000FFF704F8002413E0012007F0E9FF2146A9
:1017D0004FF0804008F047FF21464FF0804008F06E
:1017E00046FF21464FF0804008F043FF601C84B262
:1017F000B4F5FA7FE8DD70BD70B50546D5B90220B5
:10180000FEF7B0FF0220FEF7E1FF00240EE001200A
:1018100007F0C6FF21464FF0804008F028FF214620
:101820004FF0804008F025FF601C84B2B4F5FA7FC9
:10183000EDDD19E00120FEF795FF0120FEF7C6FF60
:1018400000240EE0012007F0ABFF21464FF080405E
:1018500008F00DFF21464FF0804008F00AFF601CA1
:1018600084B2B4F5FA7FEDDD70BD70B5054615BBE9
:101870000220FEF70FFF0220FEF740FF0220FEF7D6
:10188000A5FF002413E0012007F08AFF21464FF056
:10189000804008F0E8FE21464FF0804008F0E5FE69
:1018A00021464FF0804008F0E4FE601C84B2B4F59D
:1018B000FA7FE8DD21E00120FEF7ECFE0120FEF7D3
:1018C0001DFF0120FEF782FF002413E0012007F036
:1018D00067FF21464FF0804008F0C5FE21464FF0DB
:1018E000804008F0C2FE21464FF0804008F0C1FE63
:1018F000601C84B2B4F5FA7FE8DD70BD70B50546B2
:10190000D5B90220FEF7FAFE0220FEF75FFF0024A1
:101910000EE0012007F044FF21464FF0804008F020
:10192000A4FE21464FF0804008F0A3FE601C84B264
:10193000B4F5FA7FEDDD19E00120FEF7DFFE0120AE
:10194000FEF744FF00240EE0012007F029FF2146A6
:101950004FF0804008F089FE21464FF0804008F0AB
:1019600088FE601C84B2B4F5FA7FEDDD70BD70B501
:101970000546D5B90220FEF78DFE0220FEF726FFB0
:1019800000240EE0012007F00BFF21464FF08040BD
:1019900008F069FE21464FF0804008F06AFE601CA6
:1019A00084B2B4F5FA7FEDDD19E00120FEF772FE96
:1019B0000120FEF70BFF00240EE0012007F0F0FEEF
:1019C00021464FF0804008F04EFE21464FF0804007
:1019D00008F04FFE601C84B2B4F5FA7FEDDD70BDF7
:1019E00070B5054695B90220FEF7F0FE002409E027
:1019F000012007F0D5FE21464FF0804008F039FE67
:101A0000601C84B2B4F5FA7FF2DD11E00120FEF72C
:101A1000DDFE002409E0012007F0C2FE21464FF060
:101A2000804008F026FE601C84B2B4F5FA7FF2DD37
:101A300070BD70B5054615BB0220FEF72BFE0220D7
:101A4000FEF75CFE0220FEF78DFE002413E001206D
:101A500007F0A6FE21464FF0804008F004FE214624
:101A60004FF0804008F001FE21464FF0804008F022
:101A7000FEFD601C84B2B4F5FA7FE8DD21E00120B0
:101A8000FEF708FE0120FEF739FE0120FEF76AFE90
:101A9000002413E0012007F083FE21464FF0804030
:101AA00008F0E1FD21464FF0804008F0DEFD2146C0
:101AB0004FF0804008F0DBFD601C84B2B4F5FA7F83
:101AC000E8DD70BD70B50546D5B90220FEF716FEFB
:101AD0000220FEF747FE00240EE0012007F060FE22
:101AE00021464FF0804008F0C0FD21464FF0804075
:101AF00008F0BDFD601C84B2B4F5FA7FEDDD19E09D
:101B00000120FEF7FBFD0120FEF72CFE00240EE075
:101B1000012007F045FE21464FF0804008F0A5FD6A
:101B200021464FF0804008F0A2FD601C84B2B4F55D
:101B3000FA7FEDDD70BD1CB5012000900346024622
:101B40005321019040F2F310FEF7E6FF4FF4FA71D3
:101B5000F94808F088FD4FF4FA71F74808F085FD60
:101B60004FF4FA71F44808F082FD4FF4FA71F2482C
:101B700008F07FFD1CBD70B50546A5B901231A46C6
:101B800019461846FEF7B4FF002408E0012007F0CC
:101B900007FE2146E84808F066FD601C84B2B4F5F3
:101BA000FA7FF3DD10E00220FEF7E2FE002408E0F9
:101BB000012007F0F5FD2146DF4808F054FD601CC8
:101BC00084B2B4F5FA7FF3DD70BD70B50546C5B9D2
:101BD0000220FEF7CDFE0120FEF7FAFE00240CE005
:101BE000012007F0DDFD2146D34808F03CFD2146E9
:101BF000D14808F03AFD601C84B2B4F5FA7FEFDDFD
:101C000017E00120FEF7B4FE0220FEF7E1FE0024FB
:101C10000CE0012007F0C4FD2146C74808F023FD71
:101C20002146C54808F021FD601C84B2B4F5FA7F56
:101C3000EFDD70BD70B505468DB90120FEF798FE49
:101C4000002408E0012007F0ABFD2146BA4808F067
:101C50000AFD601C84B2B4F5FA7FF3DD10E00220C7
:101C6000FEF786FE002408E0012007F099FD2146DA
:101C7000B14808F0F8FC601C84B2B4F5FA7FF3DDDB
:101C800070BD70B50546FDB90220FEF771FE022059
:101C9000FEF79EFE0120FEF7CBFE002410E001209F
:101CA00007F07EFD2146A44808F0DDFC2146A2484D
:101CB00008F0DBFC2146A04808F0D9FC601C84B287
:101CC000B4F5FA7FEBDD1EE00120FEF751FE0120A6
:101CD000FEF77EFE0220FEF7ABFE002410E001209E
:101CE00007F05EFD2146944808F0BDFC214692486D
:101CF00008F0BBFC2146904808F0B9FC601C84B297
:101D0000B4F5FA7FEBDD70BD70B505468DB90120E5
:101D1000FEF72EFE002408E0012007F041FD2146D9
:101D2000854808F0A0FC601C84B2B4F5FA7FF3DDAE
:101D300010E00220FEF71CFE002408E0012007F05E
:101D40002FFD21467C4808F08EFC601C84B2B4F55F
:101D5000FA7FF3DD70BD70B50546C5B90220FEF708
:101D600007FE0120FEF734FE00240CE0012007F0FE
:101D700017FD2146704808F076FC21466E4808F0B1
:101D800074FC601C84B2B4F5FA7FEFDD17E001202B
:101D9000FEF7EEFD0220FEF71BFE00240CE0012002
:101DA00007F0FEFC2146644808F05DFC21466248CD
:101DB00008F05BFC601C84B2B4F5FA7FEFDD70BD07
:101DC00070B505468DB90120FEF7D2FD002408E06C
:101DD000012007F0E5FC2146574808F044FC601C50
:101DE00084B2B4F5FA7FF3DD10E00220FEF7C0FD07
:101DF000002408E0012007F0D3FC21464E4808F0FB
:101E000032FC601C84B2B4F5FA7FF3DD70BD70B5AE
:101E1000054635BB0220FEF7ABFD0220FEF7D8FDDC
:101E20000220FEF705FE0120FEF732FE002414E03A
:101E3000012007F0B5FC21463F4808F014FC21467C
:101E40003D4808F012FC21463B4808F010FC2146B2
:101E5000394808F00EFC601C84B2B4F5FA7FE7DD67
:101E600025E00120FEF784FD0120FEF7B1FD0120F1
:101E7000FEF7DEFD0220FEF70BFE002414E0012039
:101E800007F08EFC21462C4808F0EDFB21462A483D
:101E900008F0EBFB2146284808F0E9FB21462648DC
:101EA00008F0E7FB601C84B2B4F5FA7FE7DD70BD93
:101EB00070B505468DB90120FEF75AFD002408E0F3
:101EC000012007F06DFC21461B4808F0CCFB601C8C
:101ED00084B2B4F5FA7FF3DD10E00220FEF748FD8E
:101EE000002408E0012007F05BFC2146124808F0BE
:101EF000BAFB601C84B2B4F5FA7FF3DD70BD70B537
:101F00000546DDB90220FEF733FD0220FEF7C0FDD5
:101F100000240CE0012007F043FC2146064808F0AD
:101F2000A2FB2146044808F0A4FB601C84B2B4F56F
:101F3000FA7FEFDD1AE00000000400400120FEF708
:101F400017FD0120FEF7A4FD00240CE0012007F09E
:101F500027FC2146FD4808F086FB2146FB4808F097
:101F600088FB601C84B2B4F5FA7FEFDD70BD70B5FC
:101F7000054635BB0220FEF7FBFC0220FEF728FDDC
:101F80000220FEF755FD0220FEF782FD002414E03A
:101F9000012007F005FC2146EC4808F064FB2146CF
:101FA000EA4808F062FB2146E84808F060FB214659
:101FB000E64808F05EFB601C84B2B4F5FA7FE7DD0A
:101FC00025E00120FEF7D4FC0120FEF701FD0120F1
:101FD000FEF72EFD0120FEF75BFD002414E001203A
:101FE00007F0DEFB2146D94808F03DFB2146D748E3
:101FF00008F03BFB2146D54808F039FB2146D34881
:1020000008F037FB601C84B2B4F5FA7FE7DD70BDE1
:1020100070B50546FDB90220FEF7DAFC0220FEF796
:1020200007FD0220FEF734FD002410E0012007F038
:10203000B7FB2146C54808F018FB2146C34808F005
:1020400016FB2146C14808F014FB601C84B2B4F5AD
:10205000FA7FEBDD1EE00120FEF7BAFC0120FEF75F
:10206000E7FC0120FEF714FD002410E0012007F03A
:1020700097FB2146B54808F0F8FA2146B34808F026
:10208000F6FA2146B14808F0F4FA601C84B2B4F5BF
:10209000FA7FEBDD70BD70B50546FDB90220FEF795
:1020A00067FC0220FEF7C4FC0220FEF7F1FC0024CE
:1020B00010E0012007F074FB2146A44808F0D3FA91
:1020C0002146A24808F0D3FA2146A04808F0D1FAE8
:1020D000601C84B2B4F5FA7FEBDD1EE00120FEF750
:1020E00047FC0120FEF7A4FC0120FEF7D1FC0024F0
:1020F00010E0012007F054FB2146944808F0B3FAA1
:102100002146924808F0B3FA2146904808F0B1FA07
:10211000601C84B2B4F5FA7FEBDD70BD70B5054686
:10212000C5B90220FEF784FC0220FEF7B1FC0024B2
:102130000CE0012007F034FB2146844808F097FAB0
:102140002146824808F095FA601C84B2B4F5FA7F03
:10215000EFDD17E00120FEF76BFC0120FEF798FC95
:1021600000240CE0012007F01BFB2146774808F013
:102170007EFA2146754808F07CFA601C84B2B4F5FA
:10218000FA7FEFDD70BD70B50546FDB90220FEF7A0
:10219000EFFB0220FEF71CFC0220FEF779FC002476
:1021A00010E0012007F0FCFA2146684808F05BFACD
:1021B0002146664808F059FA2146644808F059FA61
:1021C000601C84B2B4F5FA7FEBDD1EE00120FEF75F
:1021D000CFFB0120FEF7FCFB0120FEF759FC002499
:1021E00010E0012007F0DCFA2146584808F03BFADD
:1021F0002146564808F039FA2146544808F039FA81
:10220000601C84B2B4F5FA7FEBDD70BD70B5054695
:10221000C5B90220FEF7DCFB0220FEF739FC0024E2
:102220000CE0012007F0BCFA2146484808F01DFAEE
:102230002146464808F01DFA601C84B2B4F5FA7FC6
:10224000EFDD17E00120FEF7C3FB0120FEF720FCC5
:1022500000240CE0012007F0A3FA21463B4808F0D7
:1022600004FA2146394808F004FA601C84B2B4F537
:10227000FA7FEFDD70BD70B50546C5B90220FEF7E7
:1022800077FB0220FEF704FC00240CE0012007F09D
:1022900087FA21462D4808F0E6F921462B4808F038
:1022A000E8F9601C84B2B4F5FA7FEFDD17E0012095
:1022B000FEF75EFB0120FEF7EBFB00240CE00120A3
:1022C00007F06EFA2146214808F0CDF921461F4853
:1022D00008F0CFF9601C84B2B4F5FA7FEFDD70BD71
:1022E00070B505468DB90220FEF7D2FB002408E048
:1022F000012007F055FA2146144808F0BAF9601C8D
:1023000084B2B4F5FA7FF3DD10E00120FEF7C0FBE4
:10231000002408E0012007F043FA21460B4808F0AA
:10232000A8F9601C84B2B4F5FA7FF3DD70BD70B516
:10233000054615BB0220FEF71BFB0220FEF748FBFB
:102340000220FEF775FB002413E0000000040040AB
:10235000012007F025FA2146FD4808F084F92146BE
:10236000FB4808F082F92146F94808F080F9601C22
:1023700084B2B4F5FA7FEBDD1EE00120FEF7F8FA37
:102380000120FEF725FB0120FEF752FB002410E0A0
:10239000012007F005FA2146ED4808F064F92146CE
:1023A000EB4808F062F92146E94808F060F9601C42
:1023B00084B2B4F5FA7FEBDD70BD70B50546C5B9E2
:1023C0000220FEF705FB0220FEF732FB00240CE0A2
:1023D000012007F0E5F92146DD4808F046F92146DD
:1023E000DB4808F044F9601C84B2B4F5FA7FEFDDF5
:1023F00017E00120FEF7ECFA0120FEF719FB00249C
:102400000CE0012007F0CCF92146D14808F02DF965
:102410002146CF4808F02BF9601C84B2B4F5FA7F4E
:10242000EFDD70BD1CB5012000900346024653212C
:10243000019040F2F310FEF7D1FC4FF4FA71C54859
:1024400008F011F94FF4FA71C24808F00EF94FF490
:10245000FA71C04808F00BF94FF4FA71BD4808F062
:1024600008F91CBD70B50546A5B901231A461946E1
:102470001846FEF79FFC002408E0012007F090F9C1
:102480002146B44808F0EFF8601C84B2B4F5FA7F36
:10249000F3DD10E00220FEF7C5FB002408E0012078
:1024A00007F07EF92146AB4808F0DDF8601C84B2E5
:1024B000B4F5FA7FF3DD70BD70B50546C5B90220ED
:1024C000FEF7B0FB0120FEF7E5FB00240CE0012045
:1024D00007F066F921469F4808F0C5F821469D4857
:1024E00008F0C3F8601C84B2B4F5FA7FEFDD17E0A2
:1024F0000120FEF797FB0220FEF7CCFB00240CE046
:10250000012007F04DF92146924808F0ACF8214629
:10251000904808F0AAF8601C84B2B4F5FA7FEFDDA9
:1025200070BD70B505468DB90120FEF77BFB002418
:1025300008E0012007F034F92146864808F093F8B6
:10254000601C84B2B4F5FA7FF3DD10E00220FEF7E0
:1025500069FB002408E0012007F022F921467D48AC
:1025600008F081F8601C84B2B4F5FA7FF3DD70BD29
:1025700070B50546FDB90220FEF754FB0220FEF7B8
:1025800089FB0120FEF7B6FB002410E0012007F0D4
:1025900007F921466F4808F066F821466D4808F0B3
:1025A00064F821466B4808F062F8601C84B2B4F508
:1025B000FA7FEBDD1EE00120FEF734FB0120FEF781
:1025C00069FB0220FEF796FB002410E0012007F0D3
:1025D000E7F821465F4808F046F821465D4808F0D4
:1025E00044F821465B4808F042F8601C84B2B4F518
:1025F000FA7FEBDD70BD70B505468DB90120FEF7A1
:1026000011FB002408E0012007F0CAF821465148D8
:1026100008F029F8601C84B2B4F5FA7FF3DD10E00D
:102620000220FEF7FFFA002408E0012007F0B8F8C6
:102630002146484808F017F8601C84B2B4F5FA7FC8
:10264000F3DD70BD70B50546C5B90220FEF7EAFAA4
:102650000120FEF71FFB00240CE0012007F0A0F88A
:1026600021463C4807F0FFFF21463A4807F0FDFFAE
:10267000601C84B2B4F5FA7FEFDD17E00120FEF7AD
:10268000D1FA0220FEF706FB00240CE0012007F03F
:1026900087F821462F4807F0E6FF21462D4807F02E
:1026A000E4FF601C84B2B4F5FA7FEFDD70BD70B555
:1026B00005468DB90120FEF7B5FA002408E0012097
:1026C00007F06EF82146234807F0CDFF601C84B266
:1026D000B4F5FA7FF3DD10E00220FEF7A3FA002440
:1026E00008E0012007F05CF821461A4807F0BBFF1C
:1026F000601C84B2B4F5FA7FF3DD70BD70B5054699
:1027000055BB0220FEF78EFA0220FEF7C3FA022024
:10271000FEF7F0FA0120FEF71DFB002414E0012073
:1027200007F03EF821460B4807F09DFF2146094877
:1027300007F09BFF2146074807F099FF214605480F
:1027400007F097FF601C84B2B4F5FA7FE7DD2AE05A
:102750000004004000080040FFE70120FEF762FA95
:102760000120FEF797FA0120FEF7C4FA0220FEF7D7
:10277000F1FA002414E0012007F012F82146FA488B
:1027800007F071FF2146F84807F06FFF2146F64831
:1027900007F06DFF2146F44807F06BFF601C84B220
:1027A000B4F5FA7FE7DD70BD70B505468DB901203F
:1027B000FEF738FA002408E0012006F0F1FF214678
:1027C000E94807F050FF601C84B2B4F5FA7FF3DDEE
:1027D00010E00220FEF726FA002408E0012006F0AF
:1027E000DFFF2146E04807F03EFF601C84B2B4F5ED
:1027F000FA7FF3DD70BD70B50546C5B90220FEF75E
:1028000011FA0220FEF7A6FA00240CE0012006F0DF
:10281000C7FF2146D44807F026FF2146D24807F0DB
:1028200028FF601C84B2B4F5FA7FEFDD17E00120C9
:10283000FEF7F8F90120FEF78DFA00240CE00120E4
:1028400006F0AEFF2146C84807F00DFF2146C648F6
:1028500007F00FFF601C84B2B4F5FA7FEFDD70BDA6
:1028600070B5054635BB0220FEF7DCF90220FEF705
:1028700011FA0220FEF73EFA0220FEF76BFA00245E
:1028800014E0012006F08CFF2146B74807F0EBFE6C
:102890002146B54807F0E9FE2146B34807F0E7FEB8
:1028A0002146B14807F0E5FE601C84B2B4F5FA7F1A
:1028B000E7DD25E00120FEF7B5F90120FEF7EAF992
:1028C0000120FEF717FA0120FEF744FA002414E075
:1028D000012006F065FF2146A34807F0C4FE21460B
:1028E000A14807F0C2FE21469F4807F0C0FE2146DE
:1028F0009D4807F0BEFE601C84B2B4F5FA7FE7DDA8
:1029000070BD70B50546FDB90220FEF7C3F902207F
:10291000FEF7F0F90220FEF71DFA002410E0012076
:1029200006F03EFF2146904807F09FFE21468E4864
:1029300007F09DFE21468C4807F09BFE601C84B288
:10294000B4F5FA7FEBDD1EE00120FEF7A3F90120CC
:10295000FEF7D0F90120FEF7FDF9002410E0012078
:1029600006F01EFF2146804807F07FFE21467E4884
:1029700007F07DFE21467C4807F07BFE601C84B298
:10298000B4F5FA7FEBDD70BD70B50546FDB90220E8
:10299000FEF748F90220FEF7ADF90220FEF7DAF95A
:1029A000002410E0012006F0FBFE21466E4807F0EF
:1029B0005AFE21466C4807F05AFE21466A4807F045
:1029C00058FE601C84B2B4F5FA7FEBDD1EE00120F6
:1029D000FEF728F90120FEF78DF90120FEF7BAF97C
:1029E000002410E0012006F0DBFE21465E4807F0DF
:1029F0003AFE21465C4807F03AFE21465A4807F065
:102A000038FE601C84B2B4F5FA7FEBDD70BD70B5A2
:102A10000546C5B90220FEF76DF90220FEF79AF9C6
:102A200000240CE0012006F0BBFE21464E4807F0D2
:102A30001EFE21464C4807F01CFE601C84B2B4F513
:102A4000FA7FEFDD17E00120FEF754F90120FEF7D1
:102A500081F900240CE0012006F0A2FE2146424844
:102A600007F005FE2146404807F003FE601C84B2D3
:102A7000B4F5FA7FEFDD70BD70B50546FDB90220F3
:102A8000FEF7D0F80220FEF705F90220FEF762F902
:102A9000002410E0012006F083FE2146324807F0B2
:102AA000E2FD2146304807F0E0FD21462E4807F0C0
:102AB000E0FD601C84B2B4F5FA7FEBDD1EE001207E
:102AC000FEF7B0F80120FEF7E5F80120FEF742F925
:102AD000002410E0012006F063FE2146224807F0A2
:102AE000C2FD2146204807F0C0FD21461E4807F0E0
:102AF000C0FD601C84B2B4F5FA7FEBDD70BD70B52B
:102B00000546C5B90220FEF7C5F80220FEF722F9F6
:102B100000240CE0012006F043FE2146124807F095
:102B2000A4FD2146104807F0A4FD601C84B2B4F552
:102B3000FA7FEFDD17E00120FEF7ACF80120FEF789
:102B400009F900240CE0012006F02AFE214606487F
:102B500007F08BFD2146044807F08BFD601C84B212
:102B6000B4F5FA7FEFDD70BD0008004070B5054692
:102B7000C5B90220FEF756F80220FEF7EBF8002454
:102B80000CE0012006F00CFE2146F84807F06BFD32
:102B90002146F64807F06DFD601C84B2B4F5FA7F5B
:102BA000EFDD17E00120FEF73DF80120FEF7D2F837
:102BB00000240CE0012006F0F3FD2146EB4807F06D
:102BC00052FD2146E94807F054FD601C84B2B4F57B
:102BD000FA7FEFDD70BD70B505468DB90220FEF7B6
:102BE000B9F8002408E0012006F0DAFD2146DF48AC
:102BF00007F03FFD601C84B2B4F5FA7FF3DD10E00E
:102C00000120FEF7A7F8002408E0012006F0C8FD27
:102C10002146D64807F02DFD601C84B2B4F5FA7F3A
:102C2000F3DD70BD70B50546FDB90220FDF7FAFF72
:102C30000220FEF72FF80220FEF75CF8002410E0D7
:102C4000012006F0ADFD2146C84807F00CFD2146E5
:102C5000C64807F00AFD2146C44807F008FD601C7D
:102C600084B2B4F5FA7FEBDD1EE00120FDF7DAFF58
:102C70000120FEF70FF80120FEF73CF8002410E0D9
:102C8000012006F08DFD2146B84807F0ECFC2146F6
:102C9000B64807F0EAFC2146B44807F0E8FC601C9F
:102CA00084B2B4F5FA7FEBDD70BD70B50546C5B9E9
:102CB0000220FDF7EFFF0220FEF71CF800240CE0D5
:102CC000012006F06DFD2146A84807F0CEFC214604
:102CD000A64807F0CCFC601C84B2B4F5FA7FEFDDA7
:102CE00017E00120FDF7D6FF0120FEF703F80024CE
:102CF0000CE0012006F054FD21469C4807F0B5FC8D
:102D000021469A4807F0B3FC601C84B2B4F5FA7F00
:102D1000EFDD70BD1CB50120009003460246532133
:102D2000019040F2F310FEF7B9F94FF4FA719048B0
:102D300007F099FC4FF4FA718D4807F096FC4FF4B8
:102D4000FA718B4807F093FC4FF4FA71884807F04A
:102D500090FC1CBD70B50546A5B901231A4619465D
:102D60001846FEF780F9002408E0012006F018FD5F
:102D700021467F4807F077FC601C84B2B4F5FA7FE7
:102D8000F3DD10E00220FEF7AEF8002408E0012099
:102D900006F006FD2146764807F065FC601C84B20B
:102DA000B4F5FA7FF3DD70BD70B50546C5B90220F4
:102DB000FEF799F80120FEF7C6F800240CE0012088
:102DC00006F0EEFC21466A4807F04DFC21466848B3
:102DD00007F04BFC601C84B2B4F5FA7FEFDD17E01E
:102DE0000120FEF780F80220FEF7ADF800240CE089
:102DF000012006F0D5FC21465D4807F034FC214651
:102E00005B4807F032FC601C84B2B4F5FA7FEFDD5A
:102E100070BD70B505468DB90120FEF764F8002439
:102E200008E0012006F0BCFC2146514807F01BFCDD
:102E3000601C84B2B4F5FA7FF3DD10E00220FEF7E7
:102E400052F8002408E0012006F0AAFC2146484878
:102E500007F009FC601C84B2B4F5FA7FF3DD70BDA5
:102E600070B50546FDB90220FEF73DF80220FEF7D9
:102E70006AF80120FEF797F8002410E0012006F020
:102E80008FFC21463A4807F0EEFB2146384807F010
:102E9000ECFB2146364807F0EAFB601C84B2B4F52F
:102EA000FA7FEBDD1EE00120FEF71DF80120FEF7A2
:102EB0004AF80220FEF777F8002410E0012006F01F
:102EC0006FFC21462A4807F0CEFB2146284807F030
:102ED000CCFB2146264807F0CAFB601C84B2B4F53F
:102EE000FA7FEBDD70BD70B505468DB90120FDF7A9
:102EF000FAFF002408E0012006F052FC21461C489D
:102F000007F0B1FB601C84B2B4F5FA7FF3DD10E08A
:102F10000220FDF7E8FF002408E0012006F040FC55
:102F20002146134807F09FFB601C84B2B4F5FA7F7A
:102F3000F3DD70BD70B50546E5B90220FDF7D3FF9E
:102F40000120FEF700F800240CE0012006F028FC28
:102F50002146074807F087FB2146054807F085FB17
:102F6000601C84B2B4F5FA7FEFDD1BE0000800407E
:102F7000000C00400120FDF7B6FF0220FDF7E3FF43
:102F800000240CE0012006F00BFC2146FD4807F070
:102F90006AFB2146FB4807F068FB601C84B2B4F56D
:102FA000FA7FEFDD70BD70B505468DB90120FDF7E4
:102FB0009AFF002408E0012006F0F2FB2146F148C8
:102FC00007F051FB601C84B2B4F5FA7FF3DD10E02A
:102FD0000220FDF788FF002408E0012006F0E0FB56
:102FE0002146E84807F03FFB601C84B2B4F5FA7F45
:102FF000F3DD70BD70B5054635BB0220FDF773FFEC
:103000000220FDF7A0FF0220FDF7CDFF0120FDF714
:10301000FAFF002414E0012006F0C2FB2146D94843
:1030200007F021FB2146D74807F01FFB2146D54872
:1030300007F01DFB2146D34807F01BFB601C84B240
:10304000B4F5FA7FE7DD25E00120FDF74CFF012014
:10305000FDF779FF0120FDF7A6FF0220FDF7D3FF62
:10306000002414E0012006F09BFB2146C54807F030
:10307000FAFA2146C34807F0F8FA2146C14807F09A
:10308000F6FA2146BF4807F0F4FA601C84B2B4F5A2
:10309000FA7FE7DD70BD70B505468DB90120FDF7FB
:1030A00022FF002408E0012006F07AFB2146B54803
:1030B00007F0D9FA601C84B2B4F5FA7FF3DD10E0B2
:1030C0000220FDF710FF002408E0012006F068FB55
:1030D0002146AC4807F0C7FA601C84B2B4F5FA7F09
:1030E000F3DD70BD70B50546C5B90220FDF7FBFEE6
:1030F0000220FDF788FF00240CE0012006F050FBC1
:103100002146A04807F0AFFA21469E4807F0B1FAE1
:10311000601C84B2B4F5FA7FEFDD17E00120FDF703
:10312000E2FE0120FDF76FFF00240CE0012006F015
:1031300037FB2146934807F096FA2146914807F05D
:1031400098FA601C84B2B4F5FA7FEFDD70BD70B5FB
:10315000054635BB0220FDF7C6FE0220FDF7F3FE53
:103160000220FDF720FF0220FDF74DFF002414E0B0
:10317000012006F015FB2146824807F074FA21462B
:10318000804807F072FA21467E4807F070FA21461F
:103190007C4807F06EFA601C84B2B4F5FA7FE7DD74
:1031A00025E00120FDF79FFE0120FDF7CCFE012068
:1031B000FDF7F9FE0120FDF726FF002414E00120B1
:1031C00006F0EEFA21466F4807F04DFA21466D48A9
:1031D00007F04BFA21466B4807F049FA2146694847
:1031E00007F047FA601C84B2B4F5FA7FE7DD70BDE2
:1031F00070B50546FDB90220FDF7A5FE0220FDF7DA
:10320000D2FE0220FDF7FFFE002410E0012006F0B0
:10321000C7FA21465B4807F028FA2146594807F0CB
:1032200026FA2146574807F024FA601C84B2B4F508
:10323000FA7FEBDD1EE00120FDF785FE0120FDF7A2
:10324000B2FE0120FDF7DFFE002410E0012006F0B1
:10325000A7FA21464B4807F008FA2146494807F0EB
:1032600006FA2146474807F004FA601C84B2B4F518
:10327000FA7FEBDD70BD70B50546FDB90220FDF7A4
:1032800032FE0220FDF78FFE0220FDF7BCFE002477
:1032900010E0012006F084FA21463A4807F0E3F9ED
:1032A0002146384807F0E3F92146364807F0E1F9AE
:1032B000601C84B2B4F5FA7FEBDD1EE00120FDF75F
:1032C00012FE0120FDF76FFE0120FDF79CFE002499
:1032D00010E0012006F064FA21462A4807F0C3F9FD
:1032E0002146284807F0C3F92146264807F0C1F9CE
:1032F000601C84B2B4F5FA7FEBDD70BD70B5054695
:10330000C5B90220FDF74FFE0220FDF77CFE002428
:103310000CE0012006F044FA21461A4807F0A7F90C
:103320002146184807F0A5F9601C84B2B4F5FA7F6D
:10333000EFDD17E00120FDF736FE0120FDF763FE0B
:1033400000240CE0012006F02BFA21460D4807F07E
:103350008EF921460B4807F08CF9601C84B2B4F555
:10336000FA7FEFDD70BD70B5054615BB0220FDF795
:10337000BAFD0220FDF7E7FD0220FDF744FE002420
:1033800013E00000000C0040012006F009FA21467D
:10339000FE4807F068F92146FC4807F066F9214627
:1033A000FA4807F066F9601C84B2B4F5FA7FEBDDE9
:1033B0001EE00120FDF797FD0120FDF7C4FD01206F
:1033C000FDF721FE002410E0012006F0E9F9214676
:1033D000EE4807F048F92146EC4807F046F9214647
:1033E000EA4807F046F9601C84B2B4F5FA7FEBDDD9
:1033F00070BD70B50546C5B90220FDF7A4FD0220D9
:10340000FDF701FE00240CE0012006F0C9F9214679
:10341000DE4807F02AF92146DC4807F02AF9601C4B
:1034200084B2B4F5FA7FEFDD17E00120FDF78BFDE4
:103430000120FDF7E8FD00240CE0012006F0B0F9C2
:103440002146D24807F011F92146D04807F011F97A
:10345000601C84B2B4F5FA7FEFDD70BD70B505462F
:10346000C5B90220FDF73FFD0220FDF7CCFD002489
:103470000CE0012006F094F92146C44807F0F3F867
:103480002146C24807F0F5F8601C84B2B4F5FA7F13
:10349000EFDD17E00120FDF726FD0120FDF7B3FD6C
:1034A00000240CE0012006F07BF92146B74807F024
:1034B000DAF82146B54807F0DCF8601C84B2B4F5B0
:1034C000FA7FEFDD70BD70B505468DB90220FDF7BE
:1034D0009AFD002408E0012006F062F92146AB487D
:1034E00007F0C7F8601C84B2B4F5FA7FF3DD10E092
:1034F0000120FDF788FD002408E0012006F050F9C6
:103500002146A24807F0B5F8601C84B2B4F5FA7FF2
:10351000F3DD70BD70B50546FDB90220FDF7E3FC93
:103520000220FDF710FD0220FDF73DFD002410E014
:10353000012006F035F92146944807F094F8214619
:10354000924807F092F82146904807F090F8601CE6
:1035500084B2B4F5FA7FEBDD1EE00120FDF7C3FC79
:103560000120FDF7F0FC0120FDF71DFD002410E017
:10357000012006F015F92146844807F074F8214629
:10358000824807F072F82146804807F070F8601C06
:1035900084B2B4F5FA7FEBDD70BD70B50546C5B9F0
:1035A0000220FDF7D0FC0220FDF7FDFC00240CE01A
:1035B000012006F0F5F82146744807F056F8214638
:1035C000724807F054F8601C84B2B4F5FA7FEFDD5E
:1035D00017E00120FDF7B7FC0120FDF7E4FC002413
:1035E0000CE0012006F0DCF82146684807F03DF8C1
:1035F0002146664807F03BF8601C84B2B4F5FA7FB8
:10360000EFDD70BD2DE9F04107460C4615461E461C
:1036100017B90020FFF79BFD012F02D10020FFF713
:10362000E7FD022F02D10020FFF725FE032F02D174
:103630000020FFF763FE042F02D10020FFF793FE66
:10364000052F02D10020FFF7D4FE062F02D1002063
:10365000FFF704FF072F02D10020FFF734FF082FE8
:1036600002D10020FFF756FF092F02D10020FFF7FB
:1036700094FF14B90020FFF7F3F8012C02D10020C9
:10368000FFF73FF9022C02D10020FFF77DF9032C50
:1036900002D10020FFF7BBF9042C02D10020FFF774
:1036A000EBF9052C02D10020FFF729FA062C02D1F4
:1036B0000020FFF75BFA072C02D10020FFF78BFAFE
:1036C000082C02D10020FFF7ADFA092C02D100200E
:1036D000FFF7EBFA15B90020FEF749FC012D02D1E6
:1036E0000020FEF795FC022D02D10020FEF7D3FC4E
:1036F000032D02D10020FEF711FD042D02D1002080
:10370000FEF741FD052D02D10020FEF77FFD062DBD
:1037100002D10020FEF7AFFD072D02D10020FEF7F9
:10372000DFFD082D02D10020FEF701FE092D02D198
:103730000020FEF742FE16B90020FDF772FF012EB1
:1037400002D10020FDF7C6FF022E02D10020FEF7B5
:103750000AF8032E02D10020FEF74EF8042E02D103
:103760000020FEF782F8052E02D10020FEF7C6F8F1
:10377000062E02D10020FEF7FAF8072E02D1002013
:10378000FEF72EF9082E05D1002001E0000C0040C4
:10379000FEF74FF9092E02D10020FEF793F9BDE89C
:1037A000F08170B505460DBB0220FCF773FF0220C7
:1037B000FDF70CF80120FDF7DBF8002412E00120F2
:1037C00005F0EEFF2146FE4806F04DFF21464FF082
:1037D000804006F048FF21464FF0804006F049FF48
:1037E000601C84B2B4F5FA7FE9DD20E00120FCF72B
:1037F00051FF0120FCF7EAFF0220FDF7B9F8002491
:1038000012E0012005F0CCFF2146ED4806F02BFF29
:1038100021464FF0804006F026FF21464FF08040C1
:1038200006F027FF601C84B2B4F5FA7FE9DD70BDB5
:1038300070B5054645BB0220FCF72CFF0220FCF7C3
:10384000C5FF0220FDF794F80120FDF7C1F8002420
:1038500016E0012005F0A4FF2146D94806F003FF39
:103860002146D74806F001FF21464FF0804006F080
:10387000FAFE21464FF0804006F0FBFE601C84B249
:10388000B4F5FA7FE5DD27E00120FCF703FF012016
:10389000FCF79CFF0120FDF76BF80220FDF798F87C
:1038A000002416E0012005F07BFF2146C44806F005
:1038B000DAFE2146C24806F0D8FE21464FF080408D
:1038C00006F0D1FE21464FF0804006F0D2FE601C8B
:1038D00084B2B4F5FA7FE5DD70BD70B505460DBB69
:1038E0000220FCF7D7FE0220FCF770FF0120FDF755
:1038F0003FF8002412E0012005F052FF2146B048B5
:1039000006F0B1FE21464FF0804006F0ACFE2146A5
:103910004FF0804006F0ADFE601C84B2B4F5FA7F33
:10392000E9DD20E00120FCF7B5FE0120FCF74EFFA9
:103930000220FDF71DF8002412E0012005F030FF01
:1039400021469F4806F08FFE21464FF0804006F04A
:103950008AFE21464FF0804006F08BFE601C84B248
:10396000B4F5FA7FE9DD70BD70B505467DBB022078
:10397000FCF790FE0220FCF729FF0220FCF7F8FF7D
:103980000220FDF725F80120FDF752F800241AE087
:10399000012005F005FF2146894806F064FE214616
:1039A000874806F062FE2146854806F060FE214603
:1039B0004FF0804006F057FE21464FF0804006F061
:1039C00058FE601C84B2B4F5FA7FE1DD2FE0FFE71A
:1039D0000120FCF75FFE0120FCF7F8FE0120FCF758
:1039E000C7FF0120FCF7F4FF0220FDF721F80024B7
:1039F0001AE0012005F0D4FE2146714806F033FE9E
:103A000021466F4806F031FE21466D4806F02FFE34
:103A100021464FF0804006F026FE21464FF08040C0
:103A200006F027FE601C84B2B4F5FA7FE1DD70BDBC
:103A300070B505460DBB0220FCF72CFE0220FCF7FA
:103A4000C5FE0120FCF794FF002412E0012005F0E0
:103A5000A7FE21465A4806F006FE21464FF0804058
:103A600006F001FE21464FF0804006F002FE601C89
:103A700084B2B4F5FA7FE9DD20E00120FCF70AFE0C
:103A80000120FCF7A3FE0220FCF772FF002412E0E5
:103A9000012005F085FE2146494806F0E4FD214657
:103AA0004FF0804006F0DFFD21464FF0804006F0E9
:103AB000E0FD601C84B2B4F5FA7FE9DD70BD70B53D
:103AC000054645BB0220FCF7E5FD0220FCF77EFE23
:103AD0000220FCF74DFF0220FCF7AAFF002416E0AD
:103AE000012005F05DFE2146354806F0BCFD21466B
:103AF000334806F0BCFD21464FF0804006F0B3FD90
:103B000021464FF0804006F0B4FD601C84B2B4F54D
:103B1000FA7FE5DD27E00120FCF7BCFD0120FCF782
:103B200055FE0120FCF724FF0120FCF781FF002453
:103B300016E0012005F034FE2146214806F093FDF1
:103B400021461F4806F093FD21464FF0804006F0C5
:103B50008AFD21464FF0804006F08BFD601C84B248
:103B6000B4F5FA7FE5DD70BD70B5054665BB022092
:103B7000FCF790FD0220FCF729FE0220FCF7F8FE7E
:103B80000220FCF755FF0120FDF74CF8002420E04F
:103B9000012005F005FE21460A4806F064FD214695
:103BA000074806F060FD2146054806F060FD214605
:103BB0004FF0804006F057FD21464FF0804004E072
:103BC000000400400008004007E006F052FD601CC1
:103BD00084B2B4F5FA7FDBDD2EE00120FCF75AFD5C
:103BE0000120FCF7F3FD0120FCF7C2FE0120FCF7E9
:103BF0001FFF0220FDF716F800241AE0012005F04F
:103C0000CFFD2146FE4806F02EFD2146FD4806F078
:103C10002AFD2146FB4806F02AFD21464FF0804050
:103C200006F021FD21464FF0804006F022FD601C89
:103C300084B2B4F5FA7FE1DD70BD70B50546002DA4
:103C400036D10220FCF726FD0220FCF7BFFD022042
:103C5000FCF78EFE0220FCF7EBFE0220FCF7E2FFF1
:103C60000120FDF717F800241EE0012005F098FD63
:103C70002146E34806F0F9FC2146E14806F0F3FC52
:103C80002146E04806F0EFFC2146DE4806F0EFFC56
:103C900021464FF0804006F0E6FC21464FF0804080
:103CA00006F0E7FC601C84B2B4F5FA7FDDDD35E098
:103CB0000120FCF7EFFC0120FCF788FD0120FCF758
:103CC00057FE0120FCF7B4FE0120FCF7ABFF0220F9
:103CD000FCF7E0FF00241EE0012005F061FD214615
:103CE000C74806F0C2FC2146C54806F0BCFC214688
:103CF000C44806F0B8FC2146C24806F0B8FC21468C
:103D00004FF0804006F0AFFC21464FF0804006F0B7
:103D1000B0FC601C84B2B4F5FA7FDDDD70BD70B517
:103D200005467DBB0220FCF7B5FC0220FCF74EFDEA
:103D30000220FCF71DFE0220FCF77AFE0120FCF7B2
:103D400071FF00241AE0012005F02AFD2146AC484D
:103D500006F089FC2146AB4806F085FC2146A948BF
:103D600006F085FC21464FF0804006F07CFC2146A1
:103D70004FF0804006F07DFC601C84B2B4F5FA7F01
:103D8000E1DD2FE0FFE70120FCF784FC0120FCF7D8
:103D90001DFD0120FCF7ECFD0120FCF749FE02208F
:103DA000FCF740FF00241AE0012005F0F9FC214651
:103DB000934806F058FC2146924806F054FC2146F0
:103DC000904806F054FC21464FF0804006F04BFC32
:103DD00021464FF0804006F04CFC601C84B2B4F5E4
:103DE000FA7FE1DD70BD70B50546002D3DD10220A2
:103DF000FCF750FC0220FCF7E9FC0220FCF7B8FDC0
:103E00000220FCF715FE0220FCF70CFF0220FCF755
:103E100041FF0120FCF76EFF002422E0012005F0A5
:103E2000BFFC2146764806F022FC2146744806F085
:103E30001CFC2146724806F016FC2146714806F02B
:103E400012FC21466F4806F012FC21464FF08040DC
:103E500006F009FC21464FF0804006F00AFC601C89
:103E600084B2B4F5FA7FD9DD3CE00120FCF712FC06
:103E70000120FCF7ABFC0120FCF77AFD0120FCF7E8
:103E8000D7FD0120FCF7CEFE0120FCF703FF022046
:103E9000FCF730FF002422E0012005F081FC2146E0
:103EA000574806F0E4FB2146554806F0DEFB214664
:103EB000534806F0D8FB2146524806F0D4FB214671
:103EC000504806F0D4FB21464FF0804006F0CBFB73
:103ED00021464FF0804006F0CCFB601C84B2B4F564
:103EE000FA7FD9DD70BD70B505467DBB0220FCF7B9
:103EF000D1FB0220FCF76AFC0220FCF739FD02200E
:103F0000FCF796FD0120FCF78DFE00241AE001204D
:103F100005F046FC21463A4806F0A5FB2146394803
:103F200006F0A1FB2146374806F0A1FB21464FF0E1
:103F3000804006F098FB21464FF0804006F099FB48
:103F4000601C84B2B4F5FA7FE1DD2FE0FFE70120C9
:103F5000FCF7A0FB0120FCF739FC0120FCF708FD71
:103F60000120FCF765FD0220FCF75CFE00241AE04E
:103F7000012005F015FC2146214806F074FB21467E
:103F8000204806F070FB21461E4806F070FB2146D3
:103F90004FF0804006F067FB21464FF0804006F06E
:103FA00068FB601C84B2B4F5FA7FE1DD70BD70B5CA
:103FB0000546002D3BD10220FCF76CFB0220FCF7EC
:103FC00005FC0220FCF7D4FC0220FCF731FD0220A6
:103FD000FCF728FE0120FCF75DFE002423E0012011
:103FE00005F0DEFB2146064806F03DFB214604486D
:103FF00006F03BFB2146034806F035FB214603E073
:104000000008004000040040FC4806F030FB214658
:104010004FF0804006F027FB21464FF0804006F02D
:1040200028FB601C84B2B4F5FA7FD8DD35E00120AE
:10403000FCF730FB0120FCF7C9FB0120FCF798FCE2
:104040000120FCF7F5FC0120FCF7ECFD0220FCF759
:1040500021FE00241EE0012005F0A2FB2146E848D5
:1040600006F001FB2146E64806F0FFFA2146E34848
:1040700006F0F9FA2146E14806F0F9FA21464FF038
:10408000804006F0F0FA21464FF0804006F0F1FA49
:10409000601C84B2B4F5FA7FDDDD70BD70B50546F5
:1040A0007DBB0220FCF7F6FA0220FCF78FFB022012
:1040B000FCF75EFC0220FCF7BBFC0120FCF7B2FD24
:1040C00000241AE0012005F06BFB2146CC4806F0E5
:1040D000CAFA2146C94806F0C6FA2146C74806F082
:1040E000C6FA21464FF0804006F0BDFA21464FF057
:1040F000804006F0BEFA601C84B2B4F5FA7FE1DDC0
:104100002FE0FFE70120FCF7C5FA0120FCF75EFB7A
:104110000120FCF72DFC0120FCF78AFC0220FCF7B3
:1041200081FD00241AE0012005F03AFB2146B44845
:1041300006F099FA2146B14806F095FA2146AF48B3
:1041400006F095FA21464FF0804006F08CFA2146A1
:104150004FF0804006F08DFA601C84B2B4F5FA7F0F
:10416000E1DD70BD70B50546002D44D10220FCF79D
:1041700091FA0220FCF72AFB0220FCF7F9FB02204F
:10418000FCF756FC0220FCF74DFD0220FCF782FDF7
:104190000220FCF7AFFD0120FCF7DCFD002426E047
:1041A000012005F0FDFA2146954806F05CFA21460B
:1041B000934806F05AFA2146914806F058FA2146EB
:1041C0008F4806F056FA21468C4806F04CFA2146F4
:1041D0008A4806F04CFA21464FF0804006F043FA38
:1041E00021464FF0804006F044FA601C84B2B4F5DA
:1041F000FA7FD5DD43E00120FCF74CFA0120FCF703
:10420000E5FA0120FCF7B4FB0120FCF711FC0120CA
:10421000FCF708FD0120FCF73DFD0120FCF76AFDDD
:104220000220FCF797FD002426E0012005F0B8FAF3
:104230002146734806F017FA2146714806F015FA30
:1042400021466F4806F013FA21466D4806F011FA30
:1042500021466A4806F007FA2146684806F007FA40
:1042600021464FF0804006F0FEF921464FF0804095
:1042700006F0FFF9601C84B2B4F5FA7FD5DD70BD9D
:1042800070B505467DBB0220FCF704FA0220FCF75E
:104290009DFA0220FCF76CFB0220FCF7C9FB012011
:1042A000FCF7C0FC00241AE0012005F079FA214651
:1042B000534806F0D8F92146504806F0D4F9214673
:1042C0004E4806F0D4F921464FF0804006F0CBF975
:1042D00021464FF0804006F0CCF9601C84B2B4F562
:1042E000FA7FE1DD2FE0FFE70120FCF7D3F90120A1
:1042F000FCF76CFA0120FCF73BFB0120FCF798FB74
:104300000220FCF78FFC00241AE0012005F048FA97
:1043100021463B4806F0A7F92146384806F0A3F9A4
:104320002146364806F0A3F921464FF0804006F0BA
:104330009AF921464FF0804006F09BF9601C84B248
:10434000B4F5FA7FE1DD70BD70B50546002D3DD1B5
:104350000220FCF79FF90220FCF738FA0220FCF754
:1043600007FB0220FCF764FB0220FCF75BFC022049
:10437000FCF7F0FC0120FCF7B6FD002422E0012050
:1043800005F00EFA21461F4806F06DF921461C483B
:1043900006F06FF921461A4806F065F921461748DC
:1043A00006F061F92146154806F061F921464FF003
:1043B000804006F058F921464FF0804006F059F948
:1043C000601C84B2B4F5FA7FD9DD43E00120FCF72C
:1043D00061F90120FCF7FAF90120FCF7C9FA012084
:1043E000FCF726FB0120FCF71DFC0120FCF7B2FCCA
:1043F0000220FCF778FD002429E0000000040040C2
:1044000000080040000C0040012005F0C9F92146D9
:10441000FE4806F028F92146FD4806F02AF9214613
:10442000FB4806F020F92146FA4806F01CF921461F
:10443000F84806F01CF921464FF0804006F013F9C9
:1044400021464FF0804006F014F9601C84B2B4F5A8
:10445000FA7FD9DD70BD70B50546002D44D102202C
:10446000FCF718F90220FCF7B1F90220FCF780FAFA
:104470000220FCF7DDFA0220FCF7D4FB0220FCF757
:1044800069FC0220FCF72FFD0120FCF75CFD0024F5
:1044900026E0012005F084F92146DC4806F0E5F825
:1044A0002146DA4806F0DFF82146D94806F0E1F85F
:1044B0002146D74806F0D7F82146D64806F0D3F86B
:1044C0002146D44806F0D3F821464FF0804006F04C
:1044D000CAF821464FF0804006F0CBF8601C84B249
:1044E000B4F5FA7FD5DD43E00120FCF7D3F80120D5
:1044F000FCF76CF90120FCF73BFA0120FCF798FA75
:104500000120FCF78FFB0120FCF724FC0120FCF7C5
:10451000EAFC0220FCF717FD002426E0012005F04C
:104520003FF92146B94806F0A0F82146B74806F001
:104530009AF82146B64806F09CF82146B44806F0A1
:1045400092F82146B34806F08EF82146B14806F0AD
:104550008EF821464FF0804006F085F821464FF056
:10456000804006F086F8601C84B2B4F5FA7FD5DD91
:1045700070BD70B50546002D3DD10220FCF78AF8CC
:104580000220FCF723F90220FCF7F2F90220FCF7E5
:104590004FFA0220FCF746FB0220FCF77BFB0220CF
:1045A000FCF7D1FC002422E0012005F0F9F82146B7
:1045B000964806F05AF82146954806F056F82146E6
:1045C000934806F050F82146924806F04CF82146F0
:1045D000904806F04CF821464FF0804006F043F832
:1045E00021464FF0804006F044F8601C84B2B4F5D8
:1045F000FA7FD9DD3CE00120FCF74CF80120FCF704
:10460000E5F80120FCF7B4F90120FCF711FA0120CC
:10461000FCF708FB0120FCF73DFB0120FCF793FCB5
:10462000002422E0012005F0BBF82146774806F07F
:104630001CF82146764806F018F82146744806F022
:1046400012F82146734806F00EF82146714806F02C
:104650000EF821464FF0804006F005F821464FF055
:10466000804006F006F8601C84B2B4F5FA7FD9DD0C
:1046700070BD2DE9F04107460C4616461D4665B350
:10468000012D02D10020FCF7AFFD022D02D1002048
:10469000FCF7D6FD032D02D10020FCF70AFE042D05
:1046A00002D10020FCF72EFE052D02D10020FCF7E0
:1046B00072FE062D02D10020FCF796FE072D02D1D6
:1046C0000020FCF7CAFE082D02D10020FCF7EEFE08
:1046D000092D02D10020FCF742FF002D19D1CEB1E7
:1046E000012E02D10020FFF75CF8022E02D100203B
:1046F000FFF79EF8032E02D10020FFF7EEF8042EFC
:1047000002D10020FFF730F9052E7DD10020FFF700
:104710008FF979E087BB14B90020FFF72AFF012C3D
:1047200002D10020FFF720FA022C02D10020FFF76F
:1047300084FA032C02D10020FFF7F1FA042C02D1F5
:104740000020FFF750FB052C02D10020FFF7CBFB28
:10475000062C02D10020FFF72AFC072C02D10020F2
:10476000FFF79CFC082C02D10020FFF7FBFC092C72
:1047700002D10020FFF784FD012F30D114B90020B1
:10478000FFF7E2FD012C02D10020FFF7EDF9022C2A
:1047900002D10020FFF751FA032C02D10020FFF7CD
:1047A000BEFA042C02D10020FFF71DFB052C02D11C
:1047B0000020FFF798FB062C02D10020FFF7F7FB43
:1047C000072C02D10020FFF769FC082C02D1002041
:1047D000FFF7C8FC092C02D10020FFF751FD022F82
:1047E00012D114B90020FFF736FE012C02D10020AF
:1047F000FFF7BAF9022C02D10020FFF71EFA032CB2
:1048000002D10020FFF78BFABDE8F081000C0040D8
:10481000000800400004004001B5BDF80000009011
:10482000BDF80000F849088008BD01B5BDF80000DA
:104830000090BDF80000F449891C088008BD08B547
:10484000F148801C00880090BDF8000008BDEE4AC9
:1048500010804FF0D842A2F88010704710B504467F
:104860002046FFF7D9FF052004F052FFFFF7E7FFCE
:1048700010BDE6480089E44908807047E249891C78
:104880000880704730B5014601F01F04C1F345139D
:10489000CA0AE50205EB43151544A8B230BD00BFB6
:1048A000011EA0F10102D0B2FAD1704730B5044622
:1048B0000D46D648808849F24131884205D0D34818
:1048C000808845F21031884214D1D0494889FFF7D9
:1048D000A3FF2012FFF7A9FFE0B2FFF7A6FFCB4925
:1048E0008889FFF799FF2812FFF79FFFE8B2FFF7CB
:1048F0009CFFABE0C548808846F6040188421DD184
:10490000C2488079012804D1C0480088401E001B9D
:1049100084B2BE494889FFF77FFF2012FFF785FF69
:10492000E0B2FFF782FFB9498889FFF775FF2812C7
:10493000FFF77BFFE8B2FFF778FF87E0B348808896
:1049400041F66311884247D1B0488079A8B9AF4891
:104950000088401E001B84B2AC494889FFF75CFF09
:104960000020FFF762FF0020FFF75FFF2012FFF734
:104970005CFFE0B2FFF759FF16E0A4494889FFF752
:104980004BFF2012FFF751FFE0B2FFF74EFF9F49A8
:104990000988491EC1F30F20FFF747FF9B4909789B
:1049A000491EC8B2FFF741FF98498889FFF734FFD5
:1049B0002812FFF73AFFE8B2FFF737FF934949881B
:1049C000491EC1F30F20FFF730FF90498978491E37
:1049D000C8B2FFF72AFF39E08C48808845F21051B1
:1049E000884220D189494889FFF716FF2012FFF736
:1049F0001CFF86494989491C88B2FFF70DFFE0B2C8
:104A0000FFF713FF81498889FFF706FF2812FFF798
:104A10000CFF7E498989491C88B2FFF7FDFEE8B288
:104A2000FFF703FF12E079488079012804D1774825
:104A30000088401E001B84B2744948892146FFF754
:104A400006FF724988892946FFF701FF30BD2DE92D
:104A5000F04105460E4600240027A0466B4800881A
:104A6000A84203DD69484088B04202DC0020BDE86E
:104A7000F08131462846FFF719FF6448808849F2E3
:104A80004131884211D06148808846F6040188424D
:104A90000BD05E48808845F21031884205D05B48D3
:104AA000808841F66311884203D12E20FFF7B4FEBF
:104AB0000DE05648808845F21051884204D14FF4E9
:104AC0003850FFF7A9FE02E02220FFF7A5FE4F486D
:104AD000808849F22031884202D10220FFF7DFFEB0
:104AE000FFF7ADFE04464948808841F663118842CD
:104AF00001D12046BBE70220FFF7D1FEFFF79FFE62
:104B000004464248808849F2413188420BD03F48F0
:104B1000808845F21031884205D03C48808845F2B3
:104B2000105188420AD10220FFF7B9FEFFF787FE35
:104B30008046E7B24FF6FF7000EA072733488088C7
:104B400049F22531884216D03048808844F23551E8
:104B5000884210D02D488088091F88420BD02B48EE
:104B600080884BF20551884205D0284880884CF255
:104B70000551884201D1204679E72448808849F2CE
:104B8000413188420BD02148808845F2103188425B
:104B900005D01E48808845F21051884207D1E012A6
:104BA000C002B91240EA411040EAE8205FE720461F
:104BB000FFF768FE5BE700B51448808849F2413191
:104BC000884211D01148808846F6040188420BD0F3
:104BD0000E48808845F21031884205D00B48808805
:104BE00041F66311884203D12920FFF715FE14E036
:104BF0000648808845F21051884209D14FF424506C
:104C0000FFF70AFE09E000007E00006C880100202A
:104C100040F273110720FFF71AFE00BD00B5FD48F2
:104C2000808849F24131884211D0FA48808846F69E
:104C3000040188420BD0F748808845F21031884241
:104C400005D0F448808841F66311884203D12820BA
:104C5000FFF7E2FD0EE0EF48808845F210518842F0
:104C600004D14FF42050FFF7D7FD03E000210720C7
:104C7000FFF7EDFD00BDF0B5054600240027E5482F
:104C8000807901280BD1E348808846F604018842E8
:104C900005D0E048808841F66311884208D1DD489C
:104CA0008079F0B9DB48808841F66311884218D1D9
:104CB000082D15D2DFE805F00406080A0C0E1012C4
:104CC00006250DE007250BE0042509E0052507E092
:104CD000012505E0002503E0032501E0022500BFD2
:104CE00000BFCC48808849F24131884217D0C9487A
:104CF000808846F60401884211D0C648808845F273
:104D0000103188420BD0C348808845F21051884248
:104D100005D0C048808841F6631188427ED1082DB5
:104D20001CD2DFE805F00406090C0F12151800BFAD
:104D300014E044F0800411E044F040040EE044F03C
:104D4000C0040BE044F0200408E044F0600405E0F7
:104D500044F0A00402E044F0E00400BF00BFAD480E
:104D6000808845F21051884202D14FF4585700E034
:104D70003627A848808845F2103188420DD0A548D2
:104D8000808845F21051884207D0A248808841F6B9
:104D90006311884201D044F008049E48808846F69A
:104DA0000401884201D144F0020421463846FFF74D
:104DB0004EFD9848808841F6631188421DD004F06A
:104DC000200068B19348008892494988884214DAE3
:104DD0009048068840888F490880084646800CE045
:104DE0008C4800888B494988884206DD89480688B6
:104DF000408888490880084646808648808845F271
:104E00001051884254D183494889FFF705FD00209D
:104E1000FFF70BFD7F494989491C00E077E088B224
:104E2000FFF7FAFC0020FFF700FD7A494989891C49
:104E300088B2FFF7F1FC77490988491EC1F30F20BA
:104E4000FFF7F3FC73494989C91C88B2FFF7E4FCFA
:104E500070490978491EC8B2FFF7E7FC6D49888997
:104E6000FFF7DAFC0020FFF7E0FC6A498989491C5A
:104E700088B2FFF7D1FC0020FFF7D7FC654989898C
:104E8000891C88B2FFF7C8FC62494988491EC1F3F2
:104E90000F20FFF7CAFC5F498989C91C88B2FFF758
:104EA000BBFC5C498978491EC8B2FFF7BEFC55E0DF
:104EB00058494889FFF7B0FC0020FFF7B6FC0020F6
:104EC000FFF7B3FC53490988491EC1F30F20FFF7D0
:104ED000ACFC50490978491EC8B2FFF7A6FC4D4901
:104EE0008889FFF799FC0020FFF79FFC0020FFF75F
:104EF0009CFC48494988491EC1F30F20FFF795FCE7
:104F000044498978491EC8B2FFF78FFC26E0082D76
:104F10001CD2DFE805F004070A0D0F12151844F043
:104F2000300413E044F0100410E044F020040DE0DD
:104F300000BF0BE044F0380408E044F0280405E02A
:104F400044F0180402E044F0080400BF00BF032747
:104F500044F4805421463846FFF779FCF0BD30B563
:104F600004460D4629462046FFF7A0FCFFF781FCCA
:104F7000294800882949088030BD70B504460D468F
:104F800016462448808849F24131884205D021489C
:104F9000808845F21031884214D11E494889FFF7B4
:104FA0003BFC2012FFF741FCE0B2FFF73EFC194941
:104FB0008889FFF731FC2812FFF737FCE8B2FFF7CA
:104FC00034FC93E01348808845F21051884227D181
:104FD00010494889FFF720FC2012FFF726FC0D49F5
:104FE0004989491C88B2FFF717FCE0B2FFF71DFCA6
:104FF00008498889FFF710FC2812FFF716FC0549BD
:105000008989491C88B2FFF707FCE8B2FFF70DFC5D
:105010006CE0000088010020140000208000006C7B
:10502000FE48808841F66311884228D1FB48807988
:1050300020B9FA480088401E001B84B2F74948890D
:10504000FFF7EAFB2012FFF7F0FBE0B2FFF7EDFB02
:105050002012FFF7EAFBE0B2FFF7E7FBEF49888990
:10506000FFF7DAFB2812FFF7E0FBE8B2FFF7DDFB02
:105070002812FFF7DAFBE8B2FFF7D7FB36E0E74884
:10508000808846F6040188421DD1E44880790128D1
:1050900004D1E2480088401E001B84B2DF494889E1
:1050A000FFF7BAFB2012FFF7C0FBE0B2FFF7BDFB32
:1050B000DA498889FFF7B0FB2812FFF7B6FBE8B2A0
:1050C000FFF7B3FB12E0D5488079012804D1D3481B
:1050D0000088401E001B84B2D04948892146FFF752
:1050E000B6FBCE4988892946FFF7B1FBCB4800893A
:1050F000CB4908804FF0D840A0F8806070BD70B5F3
:105100002DED048B0446BE20FFF786FB0520FFF73C
:105110008CFB204608F0BDFF41EC190B9FEDC10B45
:1051200053EC102B08F0C8FF41EC180B08F084FF7B
:1051300085B22846FFF779FB0120FFF776FBFF20B9
:10514000FFF773FB0020FFF770FB0020FFF76DFBFC
:10515000BDEC048B70BD10B50446002C66D1AF4980
:105160008871F02008804FF4A0704880084680883D
:1051700049F2413188420BD0A848808846F60401A4
:10518000884205D0A548808845F2103188421AD15E
:105190002C20A24908812A2048812B20888108469A
:1051A000808846F60401884205D09C48808845F2F4
:1051B0001031884206D14FF4A070984908804FF40E
:1051C000F0704880A1E09548808845F210518842EF
:1051D00010D14FF43050914908814FF42850488144
:1051E0004FF42C5088814FF4F07008804FF44870D1
:1051F00048808AE08948808841F6631188420DD151
:105200002C20864908812B2048812A2088814FF450
:10521000F07008804FF44870488076E022207F4983
:10522000088120204881212088816EE001207B496F
:1052300088714FF4A0700880F0204880084680886C
:1052400049F24131884205D07448808845F21031D6
:10525000884207D12C20714908812A2048812B20BF
:1052600088813FE06D48808846F60401884207D176
:105270002C206A4908812B2048812A20888131E02E
:105280006648808845F21051884210D14FF4305062
:10529000624908814FF4285048814FF42C5088818E
:1052A0004FF4487008804FF4F07048801AE05B4873
:1052B000808841F6631188420DD12C20574908811E
:1052C0002A2048812B2088814FF4487008804FF4B1
:1052D000F070488006E02220504908812120488152
:1052E000202088814D48808846F60401884205D0F8
:1052F0004A48808845F21031884206D14FF4F07058
:10530000464908804FF4A07048800020FFF7B3FCA6
:1053100010BD2DE9F04F86B004460D4690469946E3
:1053200004EB0800401E86B205EB0900401E87B260
:105330003A48808849F24131884215D03748808800
:1053400045F2103188420FD03448808846F6040177
:10535000884209D031488079012826D12F48808899
:1053600041F66311884220D12C494889FFF754FA4D
:105370002012FFF75AFAE0B2FFF757FA3012FFF7A0
:1053800054FAF0B2FFF751FA24498889FFF744FA3A
:105390002812FFF74AFAE8B2FFF747FA3812FFF788
:1053A00044FAF8B2FFF741FAC1E01C48808841F6A0
:1053B000631188423DD119480088A0EB0800001B0A
:1053C00084B205EB0900401E1FFA80F91349488991
:1053D000FFF722FA2012FFF728FAE0B2FFF725FACA
:1053E00004EB0801491EC1F30F20FFF71EFA04EB7E
:1053F0000801491EC8B2FFF718FA08498889FFF763
:105400000BFA2812FFF711FAE8B2FFF70EFA4FEA8B
:105410002920FFF70AFA09F0FF0007E088010020C1
:105420007E00006C6666666666660440FFF7FDF9FE
:105430007DE0FE48808845F21051884244D1FB4906
:105440004889FFF7E9F92012FFF7EFF9F749498991
:10545000491C88B2FFF7E0F9E0B2FFF7E6F9F3493B
:105460004989891C88B2FFF7D7F93012FFF7DDF9B7
:10547000EE494989C91C88B2FFF7CEF9F0B2FFF7AF
:10548000D4F9EA498889FFF7C7F92812FFF7CDF95F
:10549000E6498989491C88B2FFF7BEF9E8B2FFF7EF
:1054A000C4F9E2498989891C88B2FFF7B5F9381235
:1054B000FFF7BBF9DD498989C91C88B2FFF7ACF950
:1054C000F8B2FFF7B2F932E0D848807901280ED15E
:1054D000AA46BB46D5480088801B401E80B201907A
:1054E000D2480088001B401E80B2009003E0A24614
:1054F000B34601950097502005905120049052200A
:1055000003905320029051460598FFF7A0F95946A1
:105510000498FFF79CF901990398FFF798F900990F
:105520000298FFF794F929462046FFF7BFF906B025
:10553000BDE8F08F70B504460026BC480588408859
:105540004543BA48808846F60401884216D1B748D8
:105550008079012812D10020B44988712A2048811D
:105560002B20888100210846FFF7A0F90120AF49D0
:1055700088712B2048812A20888103E00021084679
:10558000FFF794F9FFF775F9002602E0A8480480B8
:10559000761CAE42FAD370BD00B5A1B000202090B9
:1055A00001217A2005F0F0FD0121084605F024FED6
:1055B0004FF400401E9001208DF87C0000208DF8F3
:1055C0007E0002208DF87D0001208DF87F001EA94D
:1055D000984804F0BFFA4CF233701E9002208DF808
:1055E0007C0000208DF87E0003208DF87D000120D6
:1055F0008DF87F001EA9904804F0ACFA4FF6807039
:105600001E9002208DF87C0000208DF87E00032083
:105610008DF87D0001208DF87F001EA9874804F0D9
:1056200099FA4FF480501E9002208DF87C000020E3
:105630008DF87E0003208DF87D0001208DF87F001D
:105640001EA97F4804F086FA4FF480501E90022075
:105650008DF87C0000208DF87E0003208DF87D0001
:1056600001208DF87F001EA9764804F073FA0C2201
:105670000021714804F0F9FA0C2201216E4804F06F
:10568000F4FA0C2204216C4804F0EFFA0C220521F4
:10569000694804F0EAFA0C220821674804F0E5FAA8
:1056A0000C220921644804F0E0FA0C220A21624825
:1056B00004F0DBFA0C220E215F4804F0D6FA0C222B
:1056C0000F215D4804F0D1FA0C2207215B4804F059
:1056D000CCFA0C220821594804F0C7FA0C220921FF
:1056E000564804F0C2FA0C220A21544804F0BDFACC
:1056F0000C220B21514804F0B8FA0C2211464F48F5
:1057000004F0B3FA0C220D214C4804F0AEFA0C223E
:105710000E214A4804F0A9FA0C220F21474804F050
:10572000A4FA0C221146464804F09FFA0C221146B6
:10573000444804F09AFA0F200890002009903C2079
:105740000A9000200B900C900D900E900920019073
:1057500000200290082003900020049005900690FD
:10576000079006200F9000201090119010201290AA
:105770000020139015901490169017904FF48050BD
:105780001890002019904FF480401A9000201B9030
:1057900008A81C9001A81D900FA805F0ECFE01219F
:1057A000062005F073FF322003F0FAFF01210020EC
:1057B000FFF74DF8322003F0F3FF0020FFF74EF81B
:1057C0001A49888008468088FF280ADB08468088B6
:1057D0004FF6FF71884204D014488088B0F5134F0B
:1057E0007ED1D320FFF718F8FFF729F80F498880FA
:1057F000FFF725F80D498880FFF721F80B498880CD
:10580000084680884FF6FF7101EA0020074988802A
:10581000FFF715F805498988084304498880084638
:10582000808849F2413188425AD00DE08801002039
:105830008000006C00040240000C02400010024096
:105840000014024000180240BF20FEF7E5FFFEF7FB
:10585000F6FFFE498880FEF7F2FFFC498880FEF7DC
:10586000EEFFFA498880FEF7EAFFF849888008468B
:1058700080884FF6FF7101EA0020F4498880FEF726
:10588000DEFFF24989880843F0498880084680880D
:1058900046F6040188427AD0D420FEF7BDFFFEF719
:1058A000CEFFEA498880FEF7CAFFE8498880FEF704
:1058B000C6FFE6498880084680884FF6FF7101EAF6
:1058C0000020E2498880FEF7BAFFE0498988084352
:1058D000DE4988800846808845F21031884200E021
:1058E00055E054D04FF45A40FEF796FFFEF7A7FF5D
:1058F000D64988804FF45B40FEF78EFFFEF79FFF8E
:10590000D2498880084680884FF6FF7101EA00205E
:10591000CE4988804FF45C40FEF77EFFFEF78FFF94
:10592000CA4989880843C949888008468088B0F5F3
:10593000004F02D145F210508880C448808845F25B
:105940001051884223D0A120FEF766FFFEF777FFB3
:10595000BE498880FEF773FFBC498880084680886E
:105960004FF6FF7101EA0020B8498880FEF767FF13
:10597000B64989880843B54988800846808845F239
:105980006171884203D141F66310B0498880AF4805
:10599000808849F24131884211D0AC48808845F274
:1059A000103188420BD0A948808845F210518842B6
:1059B00005D0A648808841F6631188421DD1A448CD
:1059C000006820F00F004FF02041C1F81C0108468C
:1059D000D0F81C0120F47060C1F81C010846D0F812
:1059E0001C0140F00300C1F81C010846D0F81C015E
:1059F00040F40070C1F81C0128E09448808846F605
:105A00000401884205D0914880884CF205518842B3
:105A10001CD18F48006820F00F004FF02041C1F8E2
:105A20001C010846D0F81C0120F47060C1F81C016C
:105A30000846D0F81C0140F00A00C1F81C010846D5
:105A4000D0F81C0140F44060C1F81C017F488188F7
:105A500080A008F073F87D48808849F2413188427F
:105A60007ED1CF20FEF7D8FE0020FEF7DEFEC1205B
:105A7000FEF7DBFE3020FEF7D8FEED20FEF7CCFE71
:105A80006420FEF7D2FE0320FEF7CFFE1220FEF7C1
:105A9000CCFE8120FEF7C9FEE820FEF7BDFE852082
:105AA000FEF7C3FE1020FEF7C0FE7A20FEF7BDFE13
:105AB000CB20FEF7B1FE3920FEF7B7FE2C20FEF713
:105AC000B4FE0020FEF7B1FE3420FEF7AEFE022049
:105AD000FEF7ABFEF720FEF79FFE2020FEF7A5FEA7
