:020000040800F2
:1000000000050020010100089B1A0008EB140008FD
:10001000991A0008990100082D1D00080000000031
:10002000000000000000000000000000C31A0008EB
:10003000C104000800000000C11A0008C51A000829
:100040001B0100081B0100081B0100081B01000820
:100050001B0100081B0100081B0100081B01000810
:100060001B0100081B0100081B0100081B01000800
:100070001B0100081B0100081B0100081B010008F0
:100080001B0100081B0100081B0100081B010008E0
:100090001B0100081B0100081B0100081B010008D0
:1000A0001B0100081B0100081B0100081B010008C0
:1000B0001B0100081B0100081B0100081B010008B0
:1000C0001B0100081B0100081B0100081B010008A0
:1000D0001B0100081B0100081B0100081B01000890
:1000E0001B0100081B0100081B010008DFF80CD0F1
:1000F00000F040F800480047051F000800050020F8
:100100000648804706480047FEE7FEE7FEE7FEE7B1
:10011000FEE7FEE7FEE7FEE7FEE7FEE7271B000837
:10012000ED000008D2B201E000F8012B491EFBD21D
:1001300070470022F6E710B513460A4604461946F2
:10014000FFF7F0FF204610BD30B50B4601460020FA
:100150002022012409E021FA02F59D4205D303FA89
:1001600002F5491B04FA02F52844151EA2F101020A
:10017000F1DC30BD064C074D06E0E06840F00103BD
:1001800094E8070098471034AC42F6D3FFF7B2FF6B
:100190006C1F00088C1F0008FEE7000010B500F07F
:1001A000C5F826484FF47A7301780A095A4301F0DA
:1001B0000F0101EBC10303EB011102EB8102417856
:1001C0000B0903EB830302EB430201F00F010A4426
:1001D00000F108010A80827802F00F03120902EB95
:1001E000820203EB42028A70C27802F00F03120906
:1001F00002EB820203EB4202CA70027902F00F03A3
:10020000120902EB820203EB42020A71427902F008
:100210000F03120902EB820203EB42024A71827958
:1002200002F00F03120902EB820203EB42028A7111
:10023000C07900F00F00C87110BD00000000002060
:100240002DE9F0474FF4005A374C07460022554637
:100250005146204600F047FC4FF40048002241463A
:10026000204600F040FC0A2000F036FB012229461F
:10027000204600F038FC01F011FC47F00107002592
:100280004FF48049F80701D0012200E000224946DE
:10029000204600F028FC0A2000F01EFB0122414607
:1002A000204600F020FC0A2000F016FB0022414608
:1002B000204600F018FC6D1C7F08EDB2082DE1D33C
:1002C00001F014F90025474676084946204600F01B
:1002D00005FC012825D006F07F060A2000F0FCFA74
:1002E00001223946204600F0FEFB0A2000F0F4FA15
:1002F00000223946204600F0F6FB6D1CEDB2082DB9
:10030000E2D30A2000F0E8FA01223946204600F044
:10031000EAFB00225146204600F0E5FB3046BDE8EE
:10032000F08746F08006D8E7000C014010B58C201D
:10033000FFF786FF0F4C60708820FFF781FFA070E9
:100340008620FFF77DFFE0708420FFF779FF2071A2
:100350008220FFF775FF00F07F0060718020FFF7BB
:100360006FFF00F07F00A0718A20FFF769FFE07146
:1003700010BD0000000000202DE9F0474FF4005AA6
:10038000354C0E460746002255465146204600F0A1
:10039000AAFB4FF4004800224146204600F0A3FB90
:1003A0000A2000F099FA01222946204600F09BFB22
:1003B00001F074FB07F0FE0700254FF48049F807B1
:1003C00001D0012200E000224946204600F08BFBCC
:1003D0000A2000F081FA01224146204600F083FB0A
:1003E0000A2000F079FA00224146204600F07BFB0B
:1003F0006D1C7F08EDB2082DE1D300254746F007BC
:1004000001D0012200E000224946204600F06BFBAB
:100410000A2000F061FA01223946204600F063FB11
:100420000A2000F059FA00223946204600F05BFB12
:100430006D1C7608EDB2082DE1D30A2000F04CFACD
:1004400001223946204600F04EFB51462046BDE8C9
:10045000F047002200F047BB000C014010B500211E
:100460008E20FFF789FF80210846FFF785FF134C98
:100470008C206178FFF780FFA1788820FFF77CFF50
:10048000E1788620FFF778FF21798420FFF774FF59
:1004900061798220FFF770FFA1798020FFF76CFF60
:1004A000E1798A20FFF768FFA5219020FFF764FF1C
:1004B0008021BDE810408E20FFF75EBF00000020C5
:1004C000704772B6FEE7000010B50B4C00221021F9
:1004D000204600F008FB00222021204600F003FB0C
:1004E00000224021204600F0FEFA20460022BDE80E
:1004F0001040802100F0F7BA0008014010B50B4C05
:1005000001221021204600F0EEFA00222021204690
:1005100000F0E9FA00224021204600F0E4FA2046EB
:100520000022BDE81040802100F0DDBA0008014043
:1005300010B50B4C00221021204600F0D4FA012205
:100540002021204600F0CFFA00224021204600F072
:10055000CAFA20460022BDE81040802100F0C3BA4C
:100560000008014010B50B4C01221021204600F07C
:10057000BAFA01222021204600F0B5FA00224021DB
:10058000204600F0B0FA20460022BDE8104080214D
:1005900000F0A9BA0008014010B50B4C0022102150
:1005A000204600F0A0FA00222021204600F09BFA0D
:1005B00001224021204600F096FA20460022BDE8A4
:1005C0001040802100F08FBA0008014010B50B4C9C
:1005D00001221021204600F086FA00222021204628
:1005E00000F081FA01224021204600F07CFA2046EA
:1005F0000022BDE81040802100F075BA00080140DB
:1006000010B50B4C00221021204600F06CFA01229C
:100610002021204600F067FA01224021204600F008
:1006200062FA20460022BDE81040802100F05BBA4B
:100630000008014010B50B4C01221021204600F0AB
:1006400052FA01222021204600F04DFA01224021D9
:10065000204600F048FA20460022BDE810408021E4
:1006600000F041BA0008014010B50B4C00221021E7
:10067000204600F038FA00222021204600F033FA0C
:1006800000224021204600F02EFA20460122BDE83B
:100690001040802100F027BA0008014010B50B4C33
:1006A00001221021204600F01EFA002220212046BF
:1006B00000F019FA00224021204600F014FA2046EA
:1006C0000122BDE81040802100F00DBA0008014071
:1006D00010B50B4C00220221204600F004FA002243
:1006E000A115204600F0FFF90022E114204600F099
:1006F000FAF90022A1142046BDE8104000F0F3B939
:100700000008014010B50B4C01220221204600F0E8
:10071000EAF90022A115204600F0E5F90022E114D3
:10072000204600F0E0F90022A1142046BDE8104068
:1007300000F0D9B90008014010B50B4C002202218D
:10074000204600F0D0F901221102204600F0CBF93A
:100750000022E114204600F0C6F90022A114204630
:10076000BDE8104000F0BFB90008014010B50B4CC7
:1007700001220221204600F0B6F901221102204692
:1007800000F0B1F90022E114204600F0ACF900229B
:10079000A1142046BDE8104000F0A5B900080140B2
:1007A00010B50B4C00220221204600F09CF90022DB
:1007B000A115204600F097F90122D102204600F051
:1007C00092F90022A1142046BDE8104000F08BB938
:1007D0000008014010B50B4C01220221204600F018
:1007E00082F90022A115204600F07DF90122D102F4
:1007F000204600F078F90022A1142046BDE8104000
:1008000000F071B90008014010B50B4C0022022124
:10081000204600F068F901221102204600F063F939
:100820000122D102204600F05EF90022A1142046E8
:10083000BDE8104000F057B90008014010B50B4C5E
:1008400001220221204600F04EF901221102204629
:1008500000F049F90122D102204600F044F90022BB
:10086000A1142046BDE8104000F03DB90008014049
:1008700010B50B4C00220221204600F034F9002272
:10088000A115204600F02FF90022E114204600F0C7
:100890002AF920460122BDE81040110300F023B9D7
:1008A0000008014010B50B4C01220221204600F047
:1008B0001AF90022A115204600F015F90022E114D2
:1008C000204600F010F920460122BDE81040110337
:1008D00000F009B90008014070B5044600F008F9BD
:1008E0000546601C02D004480078044400F000F97A
:1008F000401BA042FAD370BD100000202DE9F84F34
:10090000DFF8B891002409F1040A0AF1040B234628
:100910000F270BF1040EC9E00125A5402A40AA4289
:100920007DD1674ED1F804C0ACEB0608B44532D097
:1009300014DCBCF1030F3AD009DCBCF1000F2AD063
:10094000BCF1010F1CD0BCF1020F31D11DE0BCF194
:10095000110F17D0BCF1120F2AD119E0B8F5881F7A
:1009600019D006DCB8F5803F15D0B8F5801F1FD12F
:1009700011E0B8F5001F0ED0B8F5041F18D10AE039
:10098000CB6815E0CB681B1D12E0CB6808330FE085
:10099000CB680C330CE08B682BB1012B4FF00803B4
:1009A00003D0456104E0042302E0056100E0002378
:1009B000FF2A01D8064601E000F104064FEA84054B
:1009C00001D9A5F12005D6F8008007FA05FC28EA30
:1009D0000C0803FA05F548EA0508C6F800804D68DA
:1009E000ED0062D5374DAE6946F00106AE61AD69E6
:1009F00024F0030605F001050095334D06EB050CC8
:100A0000DCF80850A607360F07FA06F825EA0805AD
:100A1000DFF8B880404503D14FF0000817E044E00C
:100A2000DFF8AC80404502D14FF001080FE0DFF85D
:100A3000A480404502D14FF0020808E0DFF898801A
:100A4000404502D14FF0030801E04FF0040808FAD6
:100A500006F848EA0508CCF808804D68D9F8006027
:100A6000ED034D4601D5164300E096432E604D68D8
:100A7000DAF80060AD03554601D5164300E0964311
:100A80002E604D68DBF80060ED025D4601D516432F
:100A900000E096432E604D68DEF80060AD027546BA
:100AA00001D5164300E096432E60641C0D682A466B
:100AB000E5407FF431AFBDE8F88F0000000401404D
:100AC0000000111000100240000001400008014029
:100AD000000C0140001001400014014080680840F3
:100AE00000D0012070470AB1016170470904FBE79B
:100AF00001488068704700001000002070B50400B5
:100B000025D094F83D00002520B984F83C502046BB
:100B100000F0B8F8242084F83D002068016821F036
:100B2000010101602068016841F400410160206812
:100B3000016821F40041016000F0FCF94D4A616850
:100B4000914201D84C4900E04C49884201D2012031
:100B500070BD4B492368B0FBF1F15E6826F03F069B
:100B60000E435E606368934206D94FF4967359430F
:100B70004FF47A73B1FBF3F12368491C1E6A26F027
:100B80003F06314319626168914210D84900401E06
:100B9000B0FBF1F2521CC2F30B02042A01D2042072
:100BA00022E0B0FBF1F0401CC0F30B001CE0A26897
:100BB000F2B301EBC10303EB0116431EB3FBF6F3E3
:100BC0005B1C43F480431B0549D092B301EBC10287
:100BD00002EB0111401EB0FBF1F0401CC0F30B0012
:100BE00040F4804040F400402168CA694CF6FF732D
:100BF0009A431043C861D4E9071001432068026892
:100C000022F0C00211430160D4E9030101432068CE
:100C1000826848F2FF339A4311438160D4E90501A9
:100C200008432168CA6822F0FF021043C86001E04F
:100C30000EE016E02068016841F0010101602564C2
:100C4000202084F83D00256384F83E50002070BDCC
:100C500001EB4106431EB3FBF6F35B1CB3E7012037
:100C6000C2E701EB4101401EB0FBF1F0401CC0F3B4
:100C70000B00B7E7A086010080841E0000093D003C
:100C800040420F0010B586B0002100910191029101
:100C9000039100681349884222D1134CA06940F0A7
:100CA0000800A061A069694600F0080004904FF4B4
:100CB0004070009012200190032003900B48FFF732
:100CC0001DFE0B48416841F0E06141F002014160C6
:100CD000E06940F40010E061E06900F40010049065
:100CE00006B010BD0054004000100240000C01404E
:100CF0000000014002488168027811448160704719
:100D000010000020074810B5016841F01001016093
:100D1000032000F067F8002000F006F800F024F847
:100D2000002010BD0020024070B50D4D04464FF468
:100D30007A712878B1FBF0F00A490968B1FBF0F04C
:100D400000F0DEFA48B9102C07D200222146501ECE
:100D500000F028F800206C6070BD012070BD00001C
:100D6000100000201C0000200C4808B5816941F0EB
:100D700001018161816901F001010091C16941F0C6
:100D80008051C161C06900F0805000900448416802
:100D900021F0E06141F00071416008BD00100240A7
:100DA00000000140F0B40E4B1B680C46C3F3022355
:100DB000C3F10705042D00D90425191D072901D207
:100DC000002300E0DB1E012606FA05F1491E214042
:100DD00099409E40761E16403143F0BC00F0B8BFEB
:100DE0000CED00E0064900F0070208684FF6FF032B
:100DF000184040EA0220034A104308607047000090
:100E00000CED00E00000FA052DE9F0470F46050063
:100E100061D0434E306800F00700B84209D2306814
:100E200020F0070038433060306800F00700B84217
:100E300051D128683B4C810712D5400703D5606823
:100E400040F4E06060602878000703D5606840F4F3
:100E5000605060606068A96820F0F000084360603E
:100E60002878C00728D06868012810D02168022897
:100E700010D0890700292EDA616821F003010143AF
:100E80006160FFF735FE804641F288390DE0216848
:100E90008903EFE78901EDE7FFF72AFEA0EB0801E0
:100EA000494502D90320BDE8F0876068696800F011
:100EB0000C00B0EB810FEFD1306800F00700B842B2
:100EC0000BD9306820F0070038433060306800F0FC
:100ED0000700B84201D00120E5E72878400705D592
:100EE0006068E96820F4E0600843606028780007E3
:100EF00006D56068296920F4605040EAC10060604E
:100F000000F038F86168084AC1F30311515CC84029
:100F10000649086006480068FFF706FF0020C2E7A0
:100F20000020024000100240541F00081C00002056
:100F3000140000200448054900684968044AC1F3C8
:100F40000221515CC84070471C0000200010024084
:100F5000641F00080448054900684968044AC1F351
:100F6000C221515CC84070471C00002000100240A4
:100F7000641F000812A185B00FC98DE80F0014A0EE
:100F8000144A006804905168134801F00C03042BC4
:100F900010D0082B0ED1C1F38343C9031DF8030001
:100FA0000AD5516804AAC1F34041515C0A4A504332
:100FB000B0FBF1F005B0704708494843FAE700007C
:100FC00002030405060708090A0B0C0D0E0F10108A
:100FD000010200000010024000127A0000093D00EA
:100FE0002DE9F84F040070D02078C04DC00749D0DB
:100FF0006868C0F38100012807D06868C0F38100E9
:10100000022809D16868C00306D52868800339D54D
:1010100060680028E7D035E06068B0F5803F0BD00D
:1010200010B1B0F5A02F11D0286820F480302860CE
:10103000286820F4802002E0286840F4803028608E
:10104000606890B1FFF754FD06460AE0286840F456
:1010500080202860F0E700BFFFF74AFD801B64286E
:1010600073D828688003F7D50CE0FFF741FD0646EA
:1010700005E000BFFFF73CFD801B6428F0D828681E
:101080008003F7D420789A4E80074FF001094FF083
:10109000000839D5686810F00C0F07D06868C0F3F5
:1010A0008100022809D16868C00306D42868800737
:1010B00014D52069012808D110E02069B0B1C6F824
:1010C0000090FFF715FD074605E00AE1FFF710FD68
:1010D000C01B0228C4D828688007F7D52868616932
:1010E00020F0F80040EAC10028600DE0C6F800805A
:1010F000FFF7FEFC074604E0FFF7FAFCC01B0228DE
:1011000023D828688007F7D4207800072CD57948A1
:10111000A169D9B1C0F80090FFF7EAFC074604E0E6
:10112000FFF7E6FCC01B02280FD8686A8007F7D5D6
:1011300071484FF4FA510068B0FBF1F0009000BF25
:101140000098411E0091FAD20EE080E0C0F80080C5
:10115000FFF7CEFC074604E0FFF7CAFCC01B0228DD
:1011600075D8686A8007F7D42078400760D5E869A9
:101170000027C00008D4E86940F08050E861E869C1
:10118000012700F0805000905C480168C90513D425
:101190000168834641F480710160FFF7A9FC824633
:1011A00006E000BFFFF7A4FCA0EB0A0064284ED8BD
:1011B000DBF80000C005F5D5E06801280AD008B1C9
:1011C000052813D0286A20F001002862286A20F040
:1011D000040002E0286A40F001002862E06841F261
:1011E000883B98B1FFF784FC82460BE0286A40F008
:1011F00004002862EEE700BFFFF77AFCA0EB0A01CB
:1012000059455AD8286A8007F6D50CE0FFF770FCDC
:10121000824605E0FFF76CFCA0EB0A0159454CD86B
:10122000286A8007F6D41FB1E86920F08050E86191
:10123000E06988B36968C1F38101022944D00228BA
:10124000C6F8608004D0FFF753FC044638E034E071
:10125000FFF74EFC074604E0FFF74AFCC01B0228DC
:101260002BD828688001F7D4206AB0F5803F05D1DB
:101270006868A16820F4003008436860D4E9080178
:101280000843696821F4741108436860C6F86090E7
:10129000FFF72EFC044606E025E000BFFFF728FC20
:1012A000001B022809D828688001F7D51BE000BF81
:1012B000FFF71EFC001B022802D90320BDE8F88FAF
:1012C00028688001F4D40EE00128F7D06868226A0B
:1012D00000F48031914204D1616A00F470108842B8
:1012E00001D00120EAE70020E8E7000000100240FA
:1012F00000004242800442421C0000200070004076
:1013000010B5401EB0F1807F01D3012010BD4FF019
:10131000E02460610F21601700F01AFD0020A06139
:1013200007202061002010BD70B5040004D094F89F
:101330003D00002510B106E0012070BD84F83C504E
:10134000204600F023F8242084F83D002068C1687E
:1013500021F40051C160204600F05AFC2068016968
:1013600021F4904101612068416921F02A01416125
:101370002068C16841F40051C1602564202084F8D0
:101380003D0084F83E00002070BD000070B586B0BE
:1013900000240094019402940394234E036823498B
:1013A00002200322224DB34219D18B6943F48043BA
:1013B0008B618B6903F4804304938B6943F00403CE
:1013C0008B618969039201F0040104910102CDE966
:1013D000001069462846FFF791FA28151BE0154EC4
:1013E000B3421FD1CB6943F40033CB61CB6903F423
:1013F000003304938B6943F004038B618969039282
:1014000001F0040104910421CDE900106946284649
:10141000FFF774FA0820CDE90004694628460294D3
:10142000FFF76CFA06B070BD0038014000100240B2
:1014300000080140004400402DE9F843044690F8BC
:101440003D001F4616460D4620284CD1C5B1BEB101
:1014500094F83C00012846D0012084F83C004FF06D
:101460000008C4F84080212084F83D00FFF740FBCD
:10147000A6848146E684A068B0F5805F03D004E0CE
:101480000120BDE8F883206928B12E465FF00005F1
:1014900084F83C800EE00026FAE78021204600F028
:1014A00013FCA0B9AEB116F8010B21684860E08CBE
:1014B000401EE084E08C4B464FF00002009700286D
:1014C000EBD14FF04001204600F0FEFB30B103208D
:1014D000D7E735F8020BC0F30800E6E7202084F8D0
:1014E0003D000020CDE70220CBE7FEE71FB500203E
:1014F0000190029003904FF48040009069460248AA
:10150000FFF7FCF91FBD0000000C014010B50B4CAB
:10151000002208212046FFF7E6FA0022102120468B
:10152000FFF7E1FA002220212046FFF7DCFA2046EF
:101530000022BDE810404021FFF7D5BA000C014061
:1015400010B50B4C012208212046FFF7CCFA0022EF
:1015500010212046FFF7C7FA002220212046FFF77E
:10156000C2FA20460022BDE810404021FFF7BBBA76
:10157000000C014010B50B4C002208212046FFF75B
:10158000B2FA012210212046FFF7ADFA00222021F5
:101590002046FFF7A8FA20460022BDE8104040216F
:1015A000FFF7A1BA000C014010B50B4C0122082135
:1015B0002046FFF798FA012210212046FFF793FA00
:1015C000002220212046FFF78EFA20460022BDE8A7
:1015D00010404021FFF787BA000C014010B50B4CBA
:1015E000002208212046FFF77EFA00221021204623
:1015F000FFF779FA012220212046FFF774FA2046EE
:101600000022BDE810404021FFF76DBA000C0140F8
:1016100010B50B4C012208212046FFF764FA002286
:1016200010212046FFF75FFA012220212046FFF714
:101630005AFA20460022BDE810404021FFF753BA75
:10164000000C014010B50B4C002208212046FFF78A
:101650004AFA012210212046FFF745FA01222021F3
:101660002046FFF740FA20460022BDE81040402106
:10167000FFF739BA000C014010B50B4C01220821CC
:101680002046FFF730FA012210212046FFF72BFAFF
:10169000012220212046FFF726FA20460022BDE83D
:1016A00010404021FFF71FBA000C014010B50B4C51
:1016B000002208212046FFF716FA002210212046BA
:1016C000FFF711FA002220212046FFF70CFA2046EE
:1016D0000122BDE810404021FFF705BA000C01408F
:1016E00010B50B4C012208212046FFF7FCF900221F
:1016F00010212046FFF7F7F9002220212046FFF7AE
:10170000F2F920460122BDE810404021FFF7EBB975
:10171000000C014010B50B4C002201212046FFF7C0
:10172000E2F9002202212046FFF7DDF9002221150F
:101730002046FFF7D8F90022E1142046BDE810400A
:10174000FFF7D1B9000C014010B50B4C0122114636
:101750002046FFF7C8F9002202212046FFF7C3F90F
:10176000002221152046FFF7BEF90022E114204691
:10177000BDE81040FFF7B7B9000C014010B50B4CA5
:10178000002201212046FFF7AEF901220221204666
:10179000FFF7A9F9002221152046FFF7A4F900223E
:1017A000E1142046BDE81040FFF79DB9000C014050
:1017B00010B50B4C012211462046FFF794F9012287
:1017C00002212046FFF78FF9002221152046FFF75E
:1017D0008AF90022E1142046BDE81040FFF783B9E2
:1017E000000C014010B50B4C002201212046FFF7F0
:1017F0007AF9002202212046FFF775F901229102B1
:101800002046FFF770F90022E1142046BDE81040A1
:10181000FFF769B9000C014010B50B4C01221146CD
:101820002046FFF760F9002202212046FFF75BF90E
:10183000012291022046FFF756F90022E1142046CA
:10184000BDE81040FFF74FB9000C014010B50B4C3C
:10185000002201212046FFF746F9012202212046FD
:10186000FFF741F9012291022046FFF73CF90022DF
:10187000E1142046BDE81040FFF735B9000C0140E7
:1018800010B50B4C012211462046FFF72CF901221E
:1018900002212046FFF727F9012291022046FFF797
:1018A00022F90022E1142046BDE81040FFF71BB9E1
:1018B000000C014010B50B4C002201212046FFF71F
:1018C00012F9002202212046FFF70DF9002221150E
:1018D0002046FFF708F920460122BDE81040D1025A
:1018E000FFF701B9000C014010B50B4C0122114665
:1018F0002046FFF7F8F8002202212046FFF7F3F810
:10190000002221152046FFF7EEF820460122BDE80F
:101910001040D102FFF7E7B8000C01402DE9F0417B
:1019200086B000242D4800940194029403948169A8
:1019300041F010018161816901F010010491816918
:1019400041F020018161816901F0200104918169E8
:1019500041F004018161816901F004010491816910
:1019600041F00801816180691D4F00F0080041F6D7
:10197000F2150490012229463846FFF7B4F8DFF843
:101980006480012240F67B414046FFF7ACF800221C
:101990004FF470414046FFF7A6F800950326012555
:1019A0000396CDE9015469463846FEF7A7FF4CF689
:1019B0007B40CDE90005CDE9024669464046FEF789
:1019C0009DFF3003CDE900050220CDE902406946C4
:1019D0004046FEF793FF06B0BDE8F08100100240DC
:1019E00000080140000C01400D4810B50B49016092
:1019F0000C49416000214FF480428160C0E903122C
:101A000041618161C1610162FFF778F8002803D06C
:101A1000BDE81040FEF755BD10BD00000054004069
:101A200024000020A08601000C4810B50A4901607E
:101A30004FF4E1314160002181600C22C160C0E9B6
:101A400004128161C161FFF76FFC002803D0BDE87B
:101A50001040FEF736BD10BD003801407800002070
:101A60000C4810B50A4901604FF4E1314160002192
:101A700081600C22C160C0E904128161C161FFF77D
:101A800053FC002803D0BDE81040FEF71ABD10BD7E
:101A900000440040BC000020FEE7FEE71FB5002028
:101AA00002904FF4804000900120019003200390A9
:101AB00069460248FEF722FF1FBD0000000C0140EE
:101AC00070477047FFF716B930B58FB028216846C8
:101AD000FEF72FFB14210AA8FEF72BFB01210804B7
:101AE000CDE900100024029402250491CDE90750AD
:101AF0004FF4E01009906846FFF772FA08B172B629
:101B0000FEE70F20CDE90A054FF48060CDE90C40D7
:101B100002210AA80E94FFF777F9002801D072B6C7
:101B2000FEE70FB030BD704710B5FFF7EFFCFFF7D1
:101B3000F1FDFEF7C9FCFEF7CBFD4FF47A742046A9
:101B4000FEF7CAFEFFF7FCFCFFF7FEFDFEF7D6FC32
:101B5000FEF7D8FD2046FEF7BFFEFFF70BFDFFF7AF
:101B60000DFEFEF7E5FCFEF7E7FD2046FEF7B4FEAE
:101B7000FFF71AFDFFF71CFEFEF7F4FCFEF7F6FD7B
:101B80002046FEF7A9FEFFF729FDFFF72BFEFEF723
:101B900003FDFEF705FE2046FEF79EFEFFF738FD2B
:101BA000FFF73AFEFEF712FDFEF714FE2046FEF7A1
:101BB00093FEFFF747FDFFF749FEFEF721FDFEF715
:101BC00023FE2046FEF788FEFFF756FDFFF758FE7E
:101BD000FEF730FDFEF732FE2046FEF77DFEFFF7F2
:101BE00065FDFFF767FEFEF73FFDFEF741FE20466D
:101BF000FEF772FEFFF774FDFFF776FEFEF74EFD6F
:101C0000FEF750FE2046BDE81040FEF765BE00001E
:101C100070B5044600680169E26821F4405111433F
:101C200001612169A0680843616908432168CA68A5
:101C300041F20C639A430243CA6020684169A26979
:101C400021F44071114341611E492068884202D14C
:101C5000FFF780F901E0FFF76DF900EBC00101EB40
:101C60000012606864218000B2FBF0F3B3FBF1F373
:101C70006FF018067343B2FBF0F5B2FBF0F605EB1C
:101C80008305322303EB0515B5FBF1F5B6FBF1F641
:101C900005F0F00505EB0615B2FBF0F6B2FBF0F02F
:101CA000B0FBF1F06FF01802504306EB800003EB3D
:101CB0000010B0FBF1F0216800F00F0028448860AC
:101CC00070BD0000003801402DE9F04198461746EC
:101CD0000E460446069D1DE0681C1BD02DB1FEF784
:101CE00007FFA0EB0800A84214D92068C16821F4BE
:101CF000D071C1602068416921F00101416120205B
:101D000084F83D0084F83E00002084F83C00032065
:101D1000BDE8F0812068006836EA000004D00020A9
:101D2000B842D9D00020F3E70120F9E7FEE7000030
:101D30000FB4054B10B503A9044A029800F028F827
:101D400010BC5DF814FB0000E51E00082000002018
:101D50000907090E002804DB00F1E02080F80014D8
:101D6000704700F00F0000F1E02080F8141D70476C
:101D700002E008C8121F08C1002AFAD17047704754
:101D8000002001E001C1121F002AFBD170470000B2
:101D90002DE9FF4F89B09B460446002506E0252823
:101DA0000BD05A460B999047641C6D1C2078002874
:101DB000F5D10DB02846BDE8F08F0027B8460122C6
:101DC000474900E0074314F8013F203B02FA03F0C3
:101DD0000842F7D120782E2819D114F8010F47F0C6
:101DE00004072A280ED06FF02F022078A0F13001CE
:101DF00009290CD808EB880102EB410100EB01082E
:101E0000641CF2E70A98641C50F8048B0A9020784E
:101E10000028CED0642808D0692806D075281ED0A6
:101E20005A460B9990476D1C58E00A994FF00A09E1
:101E300001C90A91002802DA40422D2102E0390549
:101E400004D52B218DF82010012103E0F90704D0DF
:101E50002021F7E78A4608AE0DE00021FAE70A994B
:101E60004FF00A0901C90A91F7E74946FEF76CF9F4
:101E7000303106F8011D0028F7D1ADEB060000F166
:101E80002009780701D44FF00108C84502DDA8EB0E
:101E9000090000E000208046002706E008A85A4616
:101EA000C05D0B9990476D1C7F1C5745F6DB04E025
:101EB00030205A460B9990476D1CB8F10001A8F1EB
:101EC0000108F5DC05E016F8010B5A460B9990471E
:101ED0006D1CB9F10001A9F10109F4DC641C65E78E
:101EE0000928010038B504468DF800004FF6FF734D
:101EF000012269460248FFF79FFA204638BD0000DC
:101F000078000020FEF7FEFEFFF7DEFDFFF706FD7E
:101F1000FFF78AFDFFF7A4FDFFF766FDFEF79EFAC7
:101F2000084C40F6B83500BFFEF738F9A37962795E
:101F3000217905A0FFF7FCFEFFF7F6FD2846FEF726
:101F4000CBFCF1E70800002025643A25643A2564BB
:101F50000D0A000000000000000000000102030460
:101F60000607080900000000010203048C1F000896
:101F70000000002024000000701D0008B01F0008B1
:101F800024000020DC040000801D00082021081827
:101F9000170700030000000000000000010000001F
:101FA00010000000000000000024F4000000000009
:04000005080000ED02
:00000001FF
